:020000040800F2
:10000000C80B0020490100085101000853010008F5
:1000100055010008570100085901000800000000C0
:100020000000000000000000000000005B0100086C
:100030005D010008000000005F0100086101000888
:100040006301000863010008630100086301000800
:1000500063010008630100086301000863010008F0
:1000600063010008630100086301000863010008E0
:1000700063010008630100086301000863010008D0
:1000800063010008630100086301000863010008C0
:1000900063010008630100086301000863010008B0
:1000A00063010008630100086301000863010008A0
:1000B000630100085D2A000863010008630100086D
:1000C0006301000863010008630100086301000880
:1000D00063010008153C0008630100086301000883
:1000E0006301000863010008630100086301000860
:1000F0006301000863010008630100086301000850
:10010000630100086301000863010008630100083F
:10011000630100086301000863010008630100082F
:10012000630100086301000863010008630100081F
:10013000DFF810D000F060FB00F020F80048004726
:10014000E54A0008C80B00200648804706480047DB
:10015000FEE7FEE7FEE7FEE7FEE7FEE7FEE7FEE777
:10016000FEE7FEE7FD29000831010008421C10F8F7
:10017000011B0029FBD1801A7047000070B5054CA7
:10018000054D03E0206820448047241DAC42F9D18E
:1001900070BD0000C06D0008C46D0008F0B480EAB6
:1001A0000102D40F4200B2EB410F02D202460846D0
:1001B00011464A0042D0C30DDDB2C1F3C752AD1A99
:1001C000202D35DAC1F3160141F4000204B1524288
:1001D000C5F1200602FA06F12A411044B3EBD05FC4
:1001E00023D0C4B1012DA0EBC35009DCF0BC4FF00B
:1001F000004202EAC352DBB200F5000000F020BA70
:10020000400000F1807000EBC350A0F1807040EA24
:10021000D170490009E0490841EAC071A0EBC35020
:1002200000F50000400800EBC350F0BC00F0FFB93F
:100230006142012202EB4101001BF6E7F0BC70476E
:1002400081F00041AAE780F00040A7E780EA0102C0
:1002500010B502F00043400022D04A001FD0010E2A
:1002600001EB1261C0F35600C2F3560240F40000E5
:1002700042F40002A0FB022000047F39140400D0E5
:10028000401C50EA124001D44000491EC2B20C0684
:1002900004EBD010401C4008802A02D003E000206C
:1002A00010BD20F00100002900DA0020184310BD25
:1002B00030B480EA010202F0004530F0004221F043
:1002C000004013D090B1C30DD40DC2F31601C0F39A
:1002D0001600E41A41F4000140F400027D3491421A
:1002E00001D3641C00E04900002C02DA30BC00207D
:1002F00070474FF400000023914201D3891A034351
:1003000040084FEA4101F7D151B1914202D14FF07B
:10031000004105E002D24FF0010101E06FF0010160
:1003200003EBC450284430BC00F081B92DE9F04DF6
:1003300081EA030404F0004B21F0004514464FF01D
:10034000000A23F0004150EA050220D054EA0102DD
:100350001DD0C5F30A570246C5F31303C1F31300BA
:10036000C1F30A5640F4801543F48013A7EB060846
:10037000101BD64608F2FD3873EB050002D308F1D6
:10038000010801E092185B41B8F1000F03DA002088
:100390000146BDE8F08D00204FF4801106468446EA
:1003A0000EE0171B73EB050705D3121B63EB050368
:1003B00006434CEA010C49084FEA300092185B41B1
:1003C00050EA0107EDD152EA030012D082EA04009C
:1003D00083EA0501084305D0101BAB4106D2012278
:1003E000002306E000224FF0004302E06FF001021C
:1003F00053101AEB06004CEB085110EB0A0041EBCE
:100400000B01BDE8F04D00F049B9C10F80EAE07082
:100410000844CA079623002100F012B9962300224F
:10042000114600F00DB90EB5C10F80EAE070084426
:10043000CA07002140F233438DE80E000A460B46FE
:1004400000F03BF903B000BD0EB540F2334102911C
:100450000021CDE900110A460B4600F02EF903B049
:1004600000BD00F0004220F00040C10DC0F31600B6
:1004700040F400007F2901DA00207047962903DC50
:10048000C1F19601C84001E096398840002AF4D0B5
:100490004042704720F00040C10DC0F3160040F408
:1004A00000007F2901DA00207047962903DCC1F1A2
:1004B0009601C8407047963988407047C1F30A5288
:1004C00010B5C1F3130140F2FF3341F480119A4299
:1004D00001DA002010BD40F233439A42A2F23342C7
:1004E00003DC524200F093F810BD904010BD00F0C4
:1004F000004230F000400AD0C10D01F56071C0F338
:10050000160042EA0151C20840071143704700201B
:100510000146704730B5041E71F1000404DB4FF052
:100520000044404264EB0101141E73F1000405DB3A
:100530001C464FF00043524263EB04038B4208BF5A
:10054000824230BD30B5041E71F1000404DB4FF06F
:100550000044404264EB0101141E73F1000405DB0A
:100560001C464FF00043524263EB0403994208BF1C
:10057000904230BD01F0004330B421F0004150EA18
:10058000010206D00A0DA2F56072C1F31301002A20
:1005900002DC30BC00207047440F44EAC104C100B3
:1005A000E01830BC00EBC25000F041B82DE9F05F1C
:1005B0000546002092469B468846064681464024D2
:1005C0001BE0284641464746224600F020F85346A5
:1005D0005A46C01A914110D311461846224600F0DF
:1005E0001DF92D1A67EB01084F4622460120002114
:1005F00000F014F917EB00094E41201EA4F101048C
:10060000DFDC484631462A464346BDE8F09F202AB3
:1006100004DB203A21FA02F00021704721FA02F3AC
:10062000D040C2F12002914008431946704700298A
:10063000A8BF7047401C490008BF20F00100704768
:1006400010B4B0FA80FC00FA0CF050EA010404BFC8
:1006500010BC704749B1CCF1200421FA04F411FA1E
:100660000CF118BF012121430843A3EB0C01CB1D62
:100670004FEA00614FEA102042BF002010BC7047D3
:1006800000EBC35010440029A4BF10BC7047401CAD
:10069000490008BF20F0010010BC704710B5141EBF
:1006A00073F1000408DA401C41F1000192185B412B
:1006B0001A4301D120F0010010BD2DE9F04D924602
:1006C0009B4611B1B1FA81F202E0B0FA80F2203219
:1006D000904600F0A3F804460F4640EA0A0041EABB
:1006E0000B0153465A46084313D0114653EA010002
:1006F00019D0C8F140025046FFF789FF05460E4663
:1007000050465946424600F089F8084305D001207A
:1007100004E020463946BDE8F08D0020054346EA56
:10072000E0762C4337430A986305E40AA0EB0800FF
:100730000022FD0A44EA47540A3002D5002001464F
:10074000E9E7010510196941DDE90845001969412A
:10075000BDE8F04DA2E72DE9F04D00231A461B1A23
:100760008A4103DB00200146BDE8F08DC1F30A5247
:10077000C1F3130141F480154FF0000BD10702D1F2
:1007800000186D41521E0027044640F2FF11384602
:1007900001EB620A3E468046024600204FF480117B
:1007A000FFF735FFC2197141BB1846EB0100B4EBEE
:1007B000030C75EB000C04D3E41A65EB0005174637
:1007C0000E46241908F101006D4180463428E3DD0E
:1007D000F91946EB0600091BA84103D24FF0FF327E
:1007E000134601E0002213461BEB070046EB0A51BB
:1007F000BDE8F04DFFF752BF064C074D06E0E0683C
:1008000040F0010394E8070098471034AC42F6D357
:10081000FFF792FCA06D0008C06D0008202A04DBE1
:10082000203A00FA02F1002070479140C2F1200303
:1008300020FA03F3194390407047000010B51048A8
:100840000078C0F3400010B101F09EFA16E00C48A9
:10085000007800F0010010B101F062FD0EE00848E0
:100860000078C0F3C00010B101F0AEFA06E0044811
:100870000078C0F3001008B101F03CFE10BD00008C
:10088000B00000202DE9F04306460F4690460024B4
:1008900045460320A0EB48093CE07A1B91B232198F
:1008A00090B200F049FD3A1B91B2721990B200F07B
:1008B00043FD3A1991B2721990B200F03DFD7A19D8
:1008C00091B2321990B200F037FD7A1991B2321B11
:1008D00090B200F031FD3A1991B2721B90B200F063
:1008E0002BFD7A1B91B2321B90B200F025FD3A1B12
:1008F00091B2721B90B200F01FFD641CB9F1000FA1
:1009000003DAA000801D814404E0601B80000A30EF
:1009100081446D1EAC42C0DDBDE8F0830346062174
:1009200006221248018812480288ABB1012B1BD164
:100930003AB94EF6EE60814201D1002070470120A5
:10094000FCE739B94EF6EE60824201D10120F5E7AD
:100950000020F3E7AB20F1E709B90020EEE70AB980
:100960000120EBE7AB20E9E70020E7E70000010802
:100970000008010810B504240B4800F07BF9044678
:10098000042C01D0204610BD0021074800F0B2F928
:100990000446042C01D02046F5E7044800F06AF92B
:1009A00004462046EFE700000000010800080108A7
:1009B00010B500F001F810BD10B503F0F5FA0446CB
:1009C00000F052FB204610BD2DE9F84F074689463E
:1009D0000425DFF8D4A0354800904FF0000800242B
:1009E00000264FF0000B0020FFF798FF8046B8F17B
:1009F000010F04D1DFF8B4A02D4800900AE0B8F14F
:100A0000000F04D1DFF8A8A02848009002E0AB2036
:100A1000BDE8F88F4EF6EE61504600F06BF90546E2
:100A2000042D01D02846F3E700F01EFB4946384666
:100A300000F0A2F80646042E01D03046E8E7002474
:100A40001DE01C4830F81400B84216D0194931F89E
:100A50001400194900F032F88346BBF1010F0CD0A5
:100A6000154A128891B2134A32F8140000F084F843
:100A70000646042E01D03046CAE7601C84B20F2C13
:100A8000DFDB009800F0F6F80546042D01D028467B
:100A9000BEE70021504600F02DF90546042D01D097
:100AA0002846B5E72846B3E7FF0301080000010820
:100AB0000008010850000020700000202DE9F047D8
:100AC00006460F46002545F255584FF00109124CD5
:100AD000DFF848A00020FFF721FF0546AB2D01D12C
:100AE000BDE8F0870C4800EBC52A0D480068841E5D
:100AF0000BE0B4F80080B04506D134F8020C00B227
:100B000038804FF0000904E0241F0AF102008442FB
:100B1000EFD800BF4846E3E70000010800000308E3
:100B20007400002038B50446044931F814006946C1
:100B3000FFF7C4FFBDF9000038BD000050000020E1
:100B400038B504460B4A611C32F811006946FFF7BC
:100B5000B5FFBDF8000085B22D04064931F8140038
:100B60006946FFF7ABFFBDF8000080B20543284699
:100B700038BD0000500000202DE9F04104460F462A
:100B800004250026DFF86C800120FFF7C7FE06462B
:100B9000AB2E01D1BDE8F081701C174901EBC028D4
:100BA00021E0164800680068401CB8B9394613486F
:100BB000006800F09FF80546042D01D02846E9E7BB
:100BC00021460E480068801C00F094F805460B484A
:100BD0000068001D094908602846DBE707480068EF
:100BE000001D06490860054800684045D9D38020AB
:100BF000D0E70000FF070108FEFF00087400002096
:100C000070B506460C460025A1B23046FFF7B4FF8A
:100C10000546802D04D1A1B23046FFF7D5FE05462A
:100C2000284670BD70B504460D46034931F81400DE
:100C30002946FFF7E5FF70BD5000002070B504465F
:100C40000D46AEB20A4931F8140031B2FFF7D8FFB1
:100C50000A2003F07DFC2E0C054A611C32F81100BD
:100C600031B2FFF7CDFF0A2003F072FC70BD000027
:100C70005000002030B5044604254FF4302000F029
:100C800065F80546042D17D10C48006940F00200B4
:100C90000A49086108464461006940F04000086163
:100CA0004FF4302000F052F805460448006941F640
:100CB000FD71084001490861284630BD002002400E
:100CC00004200B49C96801F0010109B101200EE0BF
:100CD0000749C96801F0040109B1022007E004498D
:100CE000C96801F0100109B1032000E00420704739
:100CF0000020024070B504460D460426F00200F0C4
:100D000025F80646042E11D10948006940F001007B
:100D1000074908612580F00200F018F806460448EB
:100D2000006941F6FE71084001490861304670BD16
:100D30000020024002480349486003484860704769
:100D40002301674500200240AB89EFCD00B5024684
:100D50000423FFF7B5FF034603E0FFF7B1FF0346A7
:100D6000521E012B01D1002AF7D102B905231846E2
:100D700000BD000051B18200A2F1C042126842F0F1
:100D800001038200A2F1C042136009E08200A2F1D7
:100D9000C0421268034B1A408300A3F1C0431A609B
:100DA00070470000FEFF0F00D0E901121143C26836
:100DB0001143026911434269114382691143C269B7
:100DC0001143026A1143426A1143826A1143C26AA3
:100DD0001143026B114302689200A2F1C0421160FC
:100DE000816808290BD101688900A1F1C041096817
:100DF00041F0400201688900A1F1C0410A60416BE5
:100E00000968426B526841EA0211426B926841EAFA
:100E10000221426B928941EA0241426B128A41EA05
:100E20000251426B127D41EA0261426B92691143A9
:100E30000268521C9200A2F1C0421160C16AB1F571
:100E4000804F1BD1816B0968826B526841EA0211A5
:100E5000826B926841EA0221826B128A41EA025156
:100E6000826B127D41EA0261826B926911430268D2
:100E70009200A2F1C042C2F8041107E06FF0704284
:100E800001688900A1F1C041C1F804217047000048
:100E900030B596B00246154C53784FF6FF7000EA15
:100EA00003231078034300211BE04800401C205C12
:100EB0002DF811003DF811004FF6FF7505EA0020EE
:100EC0002DF811003DF8110014F8115028432DF8A9
:100ED00011003DF81100984202D1C8B216B030BDE1
:100EE000491C2C29E1DBFF20F8E70000C86C000852
:100EF0002DE9F041024600250026002000230024B1
:100F0000002791F803C00CF00F0591F803C00CF016
:100F1000100CBCF1000F03D091F802C04CEA05059B
:100F200091F800C0BCF1000F31D0146800202BE014
:100F30004FF0010C0CFA00F3B1F800C00CEA030604
:100F40009E4220D183004FF00F0C0CFA03F7BC43F4
:100F500005FA03FC4CEA040491F803C0BCF1280F25
:100F600006D14FF0010C0CFA00FCC2F814C00AE0E4
:100F700091F803C0BCF1480F05D14FF0010C0CFAF9
:100F800000FCC2F810C0401C0828D1D31460B1F88E
:100F900000C0BCF1FF0F34DD546800202EE000F1EA
:100FA000080C4FF0010808FA0CF3B1F800C00CEA85
:100FB00003069E4221D183004FF00F0C0CFA03F779
:100FC000BC4305FA03FC4CEA040491F803C0BCF1ED
:100FD000280F05D100F1080C08FA0CF8C2F81480AB
:100FE00091F803C0BCF1480F07D100F1080C4FF095
:100FF000010808FA0CF8C2F81080401C0828CED36B
:101000005460BDE8F0810246002093680B400BB1AC
:10101000012000E0002070470161704710B51049C1
:1010200040F2DC5003F086FB0E4908600846006879
:1010300008B9012010BD0B480168094803F0C8FC3D
:1010400020B1074803F070FD0120F3E7054801686F
:10105000034803F0DFFC08B90120EBE70020E9E7D3
:10106000DE0100209400002070B504260024012039
:10107000FFF754FC0446AB2C06D1124800EBC42009
:1010800011490860AB2070BD0E4800EBC4200E492A
:101090000860601C0B49891E01EBC0250CE00A4862
:1010A00000680068401C10B904263046EBE706488B
:1010B0000068001D0449086003480068A842EED398
:1010C0008020E0E7000001087400002008B501213D
:1010D000442001F0DBFA1C20ADF8000048208DF818
:1010E000030069460648FFF703FF0120ADF8000042
:1010F00028208DF8030069460248FFF7F9FE08BD75
:10110000001801400008014010B5044614B1012048
:101110002C4908702B480078002837D010212A4825
:10112000FFF771FF78B108212748FFF76CFF50B136
:1011300004212548FFF767FF28B101212348FFF765
:1011400062FF012822D10A2003F002FA00201D4983
:10115000087010211C48FFF756FF08B9012010BD88
:1011600008211948FFF74FFF08B90220F7E70421CB
:101170001548FFF748FF08B90320F0E7012113489D
:10118000FFF741FF01281BD10420E8E710210E489A
:10119000FFF739FF012813D108210B48FFF733FF70
:1011A00001280DD104210848FFF72DFF012807D1A0
:1011B00001210648FFF727FF10B9012001490870F7
:1011C0000020CCE778000020001801400008014012
:1011D00070B50446002617480588408845431548E1
:1011E000808846F60401884216D112488079012889
:1011F00012D100200F4988712A2048812B20888134
:101200000021084600F03EFB01200A4988712B208E
:1012100048812A20888103E00021084600F032FB43
:1012200001F0A8F9002602E003480480761CAE42D3
:10123000FAD370BDD00100200008006C10B5044640
:1012400074B900200F498871F02008804FF4A07015
:1012500048802220088120204881212088810DE0BB
:101260000120084988714FF4A0700880F020488060
:10127000222008812120488120208881002000F040
:10128000B5FA10BDD00100202DE9FF4F84B0814692
:101290008A460020039002900698A0EB0905079863
:1012A000A0EB0A06CDF80490CDF800A0002D01DDDA
:1012B000012705E00DB9002702E04FF0FF376D422E
:1012C000002E02DD4FF0010806E016B94FF00008CD
:1012D00002E04FF0FF387642B54201DD2C4600E0D7
:1012E00034464FF0000B21E0009A91B2019A90B27F
:1012F00000F022F8039828440390029830440290AA
:101300000398A04205DD0398001B03900198384420
:1013100001900298A04205DD0298001B02900098FF
:10132000404400900BF101001FFA80FB601C8345D4
:10133000DADD08B0BDE8F08F30B504460D46294629
:10134000204600F09FFA01F015F902480088024992
:10135000088030BD0E0000200008006C2DE9FC4F15
:1013600005460E4617469846DDF82C900020019061
:101370002748808846F60401884229D1244880798C
:10138000012825D1AB46354621480088C01B401EA8
:1013900086B247461E480088A0EB0B00401E1FFA8D
:1013A00080F800201A4988712A2048812B208881E2
:1013B00043463A4631462846CDF80090FFF7CEFF27
:1013C0000120134988712B2048812A2088811CE044
:1013D000781B401C80B20190344614E02146284618
:1013E00000F050FA01F0C6F84FF0000A06E0484657
:1013F00001F0B4F80AF101001FFA80FA0198824561
:10140000F5DB601C84B24445E8DDBDE8FC8F0000DC
:10141000D001002000B59FB00121080201F016F9AB
:10142000012140F2691001F031F90120ADF8780096
:1014300010208DF87B0003208DF87A001EA9C54886
:10144000FFF756FD4CF23370ADF8780018208DF898
:101450007B0003208DF87A001EA9BF48FFF748FDE6
:101460004FF68070ADF8780018208DF87B000320CF
:101470008DF87A001EA9B948FFF73AFD41F2010044
:10148000ADF8780018208DF87B0003208DF87A00E5
:101490001EA9B348FFF72CFD0120089000200990F9
:1014A0000F200A9000200B900C900D900E90019050
:1014B000029003200390002004900590069007906E
:1014C00006200F9000201090119010201290002004
:1014D000139015901490169017904FF48050189018
:1014E000002019904FF480401A9000201B9008A80B
:1014F0001C9001A81D900FA8FFF756FC01210620A3
:10150000FFF738FC322003F023F80121002001F01E
:101510003BF8322003F01CF8002000F05BF9914901
:1015200088800846818890A002F02EFD8D48808832
:1015300049F2283188427DD141F28F01EC2001F03F
:1015400023F841F23421EF2001F01EF84FF48071AE
:10155000012001F019F84FF4E061022001F014F8C5
:1015600041F23001032001F00FF80021042001F0C6
:101570000BF840F20221082001F006F800210920B2
:1015800001F002F800210A2000F0FEFF01210C20EA
:1015900000F0FAFF00210D2000F0F6FF00210F20DF
:1015A00000F0F2FF0021102000F0EEFF07211120D3
:1015B00000F0EAFF0021122000F0E6FF00211320D6
:1015C00000F0E2FF0121072000F0DEFF322002F0F0
:1015D000BFFF41F29041102000F0D6FF40F22721DA
:1015E000112000F0D1FF322002F0B2FF8A21122038
:1015F00000F0CAFF322002F0ABFF4FF4D0511320AD
:1016000000F0C2FF0621292000F0BEFF0D212B2093
:1016100000F0BAFF322002F09BFF0021202000F0F2
:10162000B3FF0021212000F0AFFF322002F090FF35
:10163000002100E074E0302000F0A6FF40F20461D9
:10164000312000F0A1FF40F20531322000F09CFF74
:101650000021352000F098FF40F60941362000F0C7
:1016600093FF4FF40171372000F08EFF40F20131FB
:10167000382000F089FF40F20771392000F084FF24
:1016800000213C2000F080FF40F60A213D2000F0C0
:101690007BFF322002F05CFF0021502000F074FF3D
:1016A000EF21512000F070FF0021522000F06CFF6C
:1016B00040F23F11532000F067FF4FF427416020B4
:1016C00000F062FF0121612000F05EFF00216A202E
:1016D00000F05AFF0021802000F056FF00218120F9
:1016E00000F052FF0021822000F04EFF00218320F5
:1016F00000F04AFF0021842000F046FF00218520F1
:1017000000F042FF1021902000F03EFF4FF4C06136
:10171000922000F039FF40F23311072000F034FF2F
:101720000020FFF78BFD0020134908604FF6FF7083
:10173000FFF74EFD11A002F027FC0A48418814A0D3
:1017400002F022FC0748018815A002F01DFC1FB022
:1017500000BD0000000C01400014014000180140D1
:1017600000200140D0010020204C43442049443A4D
:1017700025780D0A00000000808121424C4344205E
:10178000496E697420537563636573730A000000C2
:1017900048696768742069732025640A00000000A6
:1017A00057696474682069732025640A000000008A
:1017B00010B50246012000E050430B1EA1F10104C8
:1017C000E1B2F9D110BD0000014800887047000067
:1017D0000008006C10B50446204600F0C5FE052048
:1017E00002F0DCFEFFF7F0FF10BD000030B504464C
:1017F0000023002522488079012818D1082C15D211
:10180000DFE804F00406080A0C0E101206240DE0AE
:1018100007240BE0042409E0052407E0012405E087
:10182000002403E0032401E0022400BF00BF082CD1
:101830001CD2DFE804F004070A0D0F12151843F05C
:10184000300313E043F0100310E043F020030DE0F9
:1018500000BF0BE043F0380308E043F0280305E045
:1018600043F0180302E043F0080300BF00BF032564
:1018700043F480531946284600F086FE30BD000030
:10188000D001002010B503460C464048808849F23C
:101890004131884205D03D48808845F21031884268
:1018A00014D13A49488900F05FFE181200F056FE44
:1018B000D8B200F053FE3549888900F055FE201259
:1018C00000F04CFEE0B200F049FE5DE02F48808859
:1018D00046F6040188421DD12C488079012804D1A4
:1018E0002A480088401EC01A83B22849488900F05F
:1018F0003BFE181200F032FED8B200F02FFE234952
:10190000888900F031FE201200F028FEE0B200F0DD
:1019100025FE39E01D48808845F21051884220D1CB
:101920001A49488900F020FE181200F017FE1749E6
:101930004989491C88B200F017FED8B200F00EFEAB
:101940001249888900F010FE201200F007FE0F49AE
:101950008989491C88B200F007FEE0B200F0FEFD64
:1019600012E00A488079012804D108480088401E06
:10197000C01A83B205494889194600F005FE03499B
:101980008889214600F000FE10BD0000D001002033
:101990002DE9F84F05460F4690461E4600975148E0
:1019A000B0F80090A8F1200000F0FF080A98002885
:1019B0004ED1002449E00C2E07D108EB48004A49DB
:1019C00001EB800010F804A004E0484800EB081088
:1019D00010F804A04FF0000B31E00AF0800018B1BD
:1019E0004048A0F8009003E0414800883D49088045
:1019F00039462846FFF7A0FC4FEA4A604FEA106AD2
:101A0000781C87B23B480088A84204DC3548A0F81F
:101A10000090BDE8F88F0098381AB0420BD1009FB3
:101A2000681C85B233480088A84203DC2D48A0F822
:101A30000090EEE706E00BF1010000F0FF0BBBF1B8
:101A4000080FCADB00BF601CC4B2B442B3DB44E081
:101A5000002440E00C2E07D108EB4800224901EB9E
:101A6000800010F804A004E0204800EB081010F8F3
:101A700004A04FF0000B28E00AF0800018B13946AE
:101A80002846FFF759FC4FEA4A604FEA106A781C73
:101A900087B218484088A84203DC1248A0F800909A
:101AA000B7E70098381AB0420BD1009F681C85B286
:101AB00010480088A84203DC0A48A0F80090A8E774
:101AC00006E00BF1010000F0FF0BBBF1080FD3DBC8
:101AD00000BF601CC4B2B442BCDB0248A0F8009056
:101AE00000BF96E70E000020944D00080852000841
:101AF00010000020D00100202DE9FF4F83B00546E3
:101B00000E461F462948008800904FF000090196B4
:101B100045E007EB0900FFF7BBF98046002431E000
:101B2000019E4FF0000A29E008EBC800204901EBB4
:101B3000C00004EB44015144405C02904FF0000BA4
:101B400017E0029800F0010018B1184900980880C9
:101B500003E01848008815490880291988B23146E1
:101B6000FFF7EAFB029840100290701C86B20BF15E
:101B7000010BBBF1080FE4DB0AF1010ABAF1030F14
:101B8000D2DB641C182CCBDB09F1020000F0FF094A
:101B900005981830284485B204490098088017F841
:101BA00009000028B5D107B0BDE8F08F0E00002075
:101BB000F8570008100000202DE9FF4F81B00746BC
:101BC00091461E460E9D4FF0000A002439E0301B5E
:101BD000401EC1B20A20FFF7EBFDB9FBF0F00A216D
:101BE000B0FBF1F201FB1208BAF1000F16D1701E22
:101BF000A04213DDB8F1000F0ED10020AB4605EB7B
:101C0000DB71491001FB0471009088B22B46202241
:101C10000299FFF7BDFE12E04FF0010A0020AB462B
:101C200005EBDB71491001FB0471009088B208F1EB
:101C30003001CAB22B460299FFF7AAFE00BF601C12
:101C4000C4B2B442C3DB05B0BDE8F08F2DE9F04F5C
:101C500085B080460E4691461C462E48008803906B
:101C6000002002902046E21704EB5272D210214667
:101C7000E31704EB5373DB10A4EBC3030BB1012395
:101C800000E000231A4495B2F0B20490002739E036
:101C9000049E4FF0000B32E00298411C89B2029181
:101CA0001D4911F800A008200190681E584505D173
:101CB000C4EBC500C0F10800C0B201900020009044
:101CC00017E00AF0010018B112490398088003E0F8
:101CD000124800880F49088008EB070188B2314696
:101CE000FFF72AFB4FEA6A0A701C86B20098401C74
:101CF0000090DDE900018842E3DB0BF1010BAB450D
:101D0000CADB7F1C4F45C3DB02490398088005B03E
:101D1000BDE8F08F0E00002058640008100000207D
:101D20002DE9F84704460D4690469946DDE90967D6
:101D300004F0FF0A08EB04001FFA80F809EB050025
:101D40001FFA80F916E0444502DB5446A81985B213
:101D50004D4500DB14E0002000903A7833462946D8
:101D60002046FFF715FE304606EBD07104EB61010B
:101D70008CB27F1C38787E2802DC38782028E2DAA2
:101D800000BFBDE8F887000010B51F200C4908808F
:101D90004FF6FF70FFF71CFA00F0E4FF01F0EEFDD4
:101DA00001F042FC0748006820F002000549086085
:101DB0000846006820F00100401C086010BD0000CB
:101DC0000E000020B0000020F8B5FF25F94800788B
:101DD00000287DD0642002F0BBFB4FF6FF70FFF7B8
:101DE000F7F94FF47840F4490880F4A30322142152
:101DF0005120FFF781FE1F20EF490880002413E0E7
:101E000004EBC40000EB0410322202EB400083B26A
:101E100004EBC40000EB041002EB400081B2E122AD
:101E20000F20FFF731FA641C062CE9DB64230F2234
:101E300032211046FFF728FA6423E12232211046AE
:101E4000FFF722FA002414E0C4EBC40101EB810186
:101E50000F2303EB41018AB2C4EBC40101EB810102
:101E600003EB410188B24FF496736421FFF70CFA3B
:101E7000641C042CE8DB00241EE0002619E000208E
:101E800004EB4403303333445B1CDAB2322704FBE7
:101E900007F3753399B2C6EBC60303EB83030F2731
:101EA00007EB43031F33009098B21023FFF770FD38
:101EB000761C032EE3DB641C032CDEDB00201023E6
:101EC000302240F20B1100907420FFF761FD00E01A
:101ED00021E0BCA3002240F207111A20FFF70CFEFC
:101EE000BAA3002240F20711A620FFF705FE1F202B
:101EF000B1490880B7A300223F211A20FFF7FCFD5B
:101F0000002010233A22432100904B20FFF740FD90
:101F10000020A8490870B148416800208847002087
:101F2000FFF7F2F801280ED1AD48006820F002005A
:101F3000801CAB4908600846006820F00800086073
:101F400001209C490870A54890F8200000F080000E
:101F500000287DD0A1488089A2490988884277DA83
:101F60009E48C08A9F4949888842F8DA9B48416860
:101F700000208847642002F0EBFA984890F820008F
:101F800000F080000028E4D09448808995490988B1
:101F90008842E4DA9148C08A924949888842DEDA68
:101FA0008E4880890F2805DB8C488089552801DA06
:101FB000012512E089488089552805DB87488089FA
:101FC0009B2801DA022508E0844880899B2804DBED
:101FD00082488089E12800DC03258048C08A642883
:101FE00006DB7E48C08A962802DA45F0100520E01C
:101FF0007A48C08A962806DB7848C08AC82802DA60
:1020000045F0200515E07548C08AC82806DB7348EE
:10201000C08AFA2802DA45F030050AE06F48C08A23
:10202000FA2806DB6D48C08AB0F5967F01DC45F0E2
:10203000400501206C490870312D42D010DC212D63
:102040002DD008DC112D18D0122D1CD0132D00E03E
:102050007BE05AD11DE0222D27D0232D55D12AE037
:10206000412D40D004DC322D31D0332D4DD134E020
:10207000422D3ED0432D48D141E031205B495C4A9E
:102080001278885447E032205849594A12788854C7
:1020900041E033205549564A127888543BE03420B9
:1020A0005249534A1278885435E035204F49504AF6
:1020B000127888542FE036204C494D4A12788854C3
:1020C00029E0372049494A4A1278885423E03820C9
:1020D0004649474A127888541DE039214348444A0A
:1020E0001278815417E020204049414A12788854E0
:1020F00011E030213D483E4A127881540BE04F20D8
:102100003A493B4A1278885405E000203749384A5A
:102110001278885400BF00BF354800780A2813D1D0
:10212000324833490978405C20280DD02F48304987
:102130000978405C4F2807D000202C492C4A12789F
:10214000885409202A490870FF252748007800286C
:102150007CD0002024490870244825490978405C37
:10216000202826D0214822490978405C08B31F481E
:102170001F490978405C4F2871D1002443E01D4875
:10218000005D1A49095D88423CD01BA300223F2113
:102190005F20FFF7B1FC4FF47A7002F0D9F94FF6E7
:1021A000FF705B23C7223F2100905F20FFF7D6F826
:1021B0002DE069E0BF0000200E000020C7EBB5C78E
:1021C000C2BC0000C9BEB3FD00000000C8B7C8CF44
:1021D00000000000C3DCC2EB00000000140000207F
:1021E000B0000020D0010020C0000020BB0700206C
:1021F000C1000020B4000020C3DCC2EBB4EDCEF37C
:1022000000000000641C3A48005D0028B7D100BF00
:102210003748005DA8B93748005D4F2811D13648CE
:10222000006820F00800344908600846006820F083
:10223000100010300860012030490870002030493B
:10224000087000202F49087000BF05E04EE006E04E
:102250000021284A1154401C0A28F9DB3DE00020E7
:102260002449284B00901B78CA5C264909785F23D3
:1022700003EBC10010234321FFF78AFB21480078BC
:10228000401C2049087028E01A481E490978405C23
:1022900018B31C48007800281FDD00201549194A92
:1022A00012788854002117480078401EC0B2154AA1
:1022B0001070104A11544FF6FF70124900900978BF
:1022C0005F2303EBC10101F108020E49097803EB1A
:1022D000C10053234321FFF741F806490AA001F04A
:1022E00053FE084801780CA001F04EFEF8BD000036
:1022F000B4000020BB070020B0000020BF00002079
:10230000C0000020C100002070617373776F726499
:102310003D25730A00000000636E743D25640A00C9
:1023200010B55D480078002853D01F205B49088015
:102330004FF6FF70FEF74CFF4623F02201210846BE
:10234000FFF784FC56490988A1F1610404EBD471BC
:10235000C1F34F0053A301225021FFF7CDFB504999
:102360000988A1F1D80404EBD471C1F34F0050A344
:1023700000226E21FFF7C0FB49490988A1F1D8046A
:1023800004EBD471C1F34F004EA300228621FFF766
:10239000B3FB4FF478404149088041490988A1F1D5
:1023A000600404EBD471C1F34F004BA30322C82196
:1023B000FFF7A2FB002039490880394909886039B4
:1023C00088B248A30322FA21FFF796FB0020324986
:1023D000087046484168002088470020FEF794FEB8
:1023E00001280ED14248006820F00200801C4049BC
:1023F00008600846006820F00100086001202649B6
:1024000008703A4890F8200000F0800078B3374810
:1024100080892349098888423CDA3448C08A2049A7
:102420004988884236DA1E4A1288A2F1600101EB1F
:10243000D17252102D4B9B899A422BDA184A12887E
:10244000A2F1600000EBD07252106032274B9B89E2
:102450009A421FDD254AD28AC82A01DD012200E006
:102460000022224BDB8AE02B02DA012301E011E09B
:1024700000231A4072B11E48006820F001001C4978
:1024800008600846006820F0080008300860012055
:102490000149087010BD0000BE0000200E000020A1
:1024A000D0010020B1CFD2B5C9E8BCC60000000001
:1024B000BBF9D3DAD2D4CCABCDF8B5C4D6C7C4DC23
:1024C000BDBB0000CDA8CFB5CDB3BFD8D6C6CDF823
:1024D000C2E7C9E8BCC60000B5E3BBF7BDF8C8EB6E
:1024E00000000000CDF5C6E4B3AF000014000020EA
:1024F000B00000201CB50F480078D0B14FF6FF7037
:10250000FEF766FE0CA010210B46C822CDE9001094
:102510003C210846FFF704FC0DA010210B46C82201
:10252000CDE9001050213C20FFF7FAFB00200149C3
:1025300008701CBDC2000020536F6D657468696E21
:1025400067206E65656420746F206164640000001C
:10255000506C65617365207761697400014908807A
:10256000704700000008006C0149088070470000B7
:10257000FE07006C0248008902490880704700008D
:10258000D0010020FE07006C024A1080921C1180CE
:1025900070470000FE07006C70B5002100230F2279
:1025A000C47804B3154C246804F4E064C4F5E06412
:1025B000210AC1F10403CA40447804FA03F1847883
:1025C0001440214309010E4C0678A155047804F00B
:1025D0001F050124AC4005786D11AD0005F1E02523
:1025E000C5F8004109E0047804F01F050124AC405F
:1025F000044D0678761145F8264070BD0CED00E0DC
:1026000000E400E080E100E002490143024A116079
:10261000704700000000FA050CED00E010B5094815
:10262000C07D01280BD1074890F82200082806D168
:1026300005480168034802F0A9FA012010BD0020F6
:10264000FCE70000DE0100209400002029B1064ACA
:1026500052690243044B5A6104E0034A52698243BF
:10266000014B5A61704700000010024029B1064A30
:10267000D2690243044BDA6104E0034AD26982431F
:10268000014BDA61704700000010024029B1064A90
:1026900092690243044B9A6104E0034A92698243BF
:1026A000014B9A61704700000010024030B50021D4
:1026B0000022002400232D4D6D6805F00C0121B18E
:1026C000042905D0082923D105E0294D056022E021
:1026D000274D05601FE0254D6D6805F47012234DF0
:1026E0006D6805F48034022505EB92421CB9214D3A
:1026F000554305600BE01D4D6D6805F400351DB1B7
:102700001C4D5543056002E0194D5543056002E03C
:10271000174D056000BF00BF144D6D6805F0F00156
:102720000909154D6B5C0568DD4045600F4D6D680E
:1027300005F4E061090A104D6B5C4568DD40856079
:102740000A4D6D6805F46051C90A0B4D6B5C456814
:10275000DD40C560054D6D6805F44041890B074DAE
:102760006B5CC568B5FBF3F5056130BD0010024038
:1027700000127A0000093D00D8000020E800002087
:1027800010B5044600BF02210A4800F06FF8002887
:10279000F9D02146074800F075F800BF012105482F
:1027A00000F064F80028F9D0024800F068F8C0B2E0
:1027B00010BD00000030014021B1028842F040020B
:1027C000028004E002884FF6BF731A40028070470F
:1027D00000B587B0012141F20400FFF757FFE02068
:1027E000ADF8180001208DF81A0018208DF81B0094
:1027F00006A91C48FEF77CFB1020ADF8180001204C
:102800008DF81A0010208DF81B0006A91548FEF758
:102810006FFB10211348FEF7FFFB0020ADF804000A
:102820004FF48270ADF806000020ADF80800ADF856
:102830000A00ADF80C004FF40070ADF80E00102047
:10284000ADF810000020ADF812000720ADF814001C
:1028500001A9054800F018F801210348FFF7ACFF73
:1028600007B000BD000801400030014002460020D2
:1028700013890B400BB1012000E000207047014696
:10288000888970478181704710B50022028802F460
:1028900041520B884C8823438C882343CC882343A4
:1028A0000C8923434C8923438C892343CC892343BC
:1028B0001A430280838B4FF2FF74234083830B8A79
:1028C000038210BD10B52A2408E00648015D06A069
:1028D00001F05AFB012001F03BFE641C352CF4DBB7
:1028E00010BD0000DE0100202563000010B500F0DF
:1028F00001F810BD0CB5002001900090334800682D
:1029000040F480303149086000BF3048006800F46E
:10291000003000900198401C0190009818B901986F
:10292000B0F5A06FF1D12948006800F4003010B173
:102930000120009001E0002000900098012843D180
:102940002348006840F010002149086008460068EC
:1029500020F0030008600846006840F002000860AC
:102960001A48406819494860084640684860084667
:10297000406840F4806048600846406820F47C105D
:1029800048600846406840F4E8104860084600681F
:1029900040F08070086000BF0C48006800F00070D4
:1029A0000028F9D00948406820F003000749486032
:1029B0000846406840F00200486000BF0348406895
:1029C00000F00C000828F9D10CBD000000100240F6
:1029D00000200240042808D14FF0E021096941F0AD
:1029E00004014FF0E022116107E04FF0E021096996
:1029F00021F004014FF0E0221161704710B5134837
:102A0000006840F00100114908600846406810491C
:102A100008400E494860084600680E4908400B49C6
:102A200008600846006820F4802008600846406876
:102A300020F4FE0048604FF41F008860FFF756FF47
:102A40004FF000600449086010BD00000010024013
:102A50000000FFF8FFFFF6FE08ED00E010B50121D1
:102A6000084800F041F8FEF7D9FA00B108E0FFF796
:102A7000D5FD00B104E001F065F800B100E000BF51
:102A800010BD0000000400401FB501210220FFF727
:102A9000EDFD4720ADF804000020ADF8060040F23F
:102AA000E730ADF808000020ADF80A0001A90D4894
:102AB00000F032F8012211460A4800F024F81D20E7
:102AC0008DF8000002208DF8010001208DF8020031
:102AD0008DF803006846FFF75FFD0121014800F013
:102AE00006F81FBD00040040CA430282704721B1AE
:102AF000028842F00102028004E002884FF6FE7371
:102B00001A40028070471AB183890B43838102E027
:102B100083898B4383817047002202881D4B984232
:102B20000ED01D4B98420BD0B0F1804F08D01B4BFC
:102B3000984205D01A4B984202D01A4B984204D1C1
:102B40004FF68F731A404B881A43174B984207D0A1
:102B5000164B984204D04FF6FF431A40CB881A43D5
:102B600002808B8883850B8803850A4B98420BD0A3
:102B7000094B984208D00E4B984205D00D4B984215
:102B800002D00D4B984201D10B7A03860123838238
:102B900070470000002C0140003401400004004058
:102BA00000080040000C00400010004000140040ED
:102BB0000040014000440140004801402DE9FC5F15
:102BC00004460D4617461E46DDE90EABDDE90C89CD
:102BD0004FF478405749088057A01021CDE90010E4
:102BE000564843880288A0212820FFF799F854A06E
:102BF0001021CDE90010514843880288A021782097
:102C0000FFF78EF84FA01021CDE900104B48438804
:102C10000288B4212820FFF783F84BA01021CDE9CA
:102C20000010464843880288B4217820FFF778F8DE
:102C300046A01021CDE90010404843880288C821F1
:102C40002820FFF76DF842A01021CDE900103B4885
:102C500043880288C8217820FFF762F83DA0102140
:102C6000CDE90010354843880288DC212820FFF791
:102C700057F839A01021CDE9001030484388028868
:102C8000DC217820FFF74CF834A01021CDE90010AA
:102C90002A4843880288F0212820FFF741F81020B5
:102CA00004232246A02100904020FEF785FF10203B
:102CB00004232A46A02100909020FEF77DFF1020DB
:102CC00004233A46B42100904020FEF775FF1020FF
:102CD00004233246B42100909020FEF76DFF1020AF
:102CE00004234246C82100904020FEF765FF1020D3
:102CF00004234A46C82100909020FEF75DFF102073
:102D000004235246DC2100904020FEF755FF10209E
:102D100004235A46DC2100909020FEF74DFF10203E
:102D200000900648018803236020109AFEF744FFB4
:102D3000BDE8FC9F0E00002078313A00D001002051
:102D400079313A0078323A0079323A0078333A00F1
:102D500079333A0078343A0079343A006661632076
:102D600069733A0000B595B0002010900A90109059
:102D70001F20FE4908804FF6FF70FD490880FEF7CE
:102D800027FA4FF47840F94908804FF6FF70FEF7B4
:102D90001FFA0020F5490880F648006810216423D6
:102DA000A022CDE9001028210846FEF7B9FF4FF414
:102DB00078421421084600F0FFFB0020EE4981F81C
:102DC00020004862CBE3EC48406809900120099953
:102DD0008847E94890F8200000F0C00040286FD1F3
:102DE00000200A90E44890F8200020F04000E249DA
:102DF00081F820000846818911AA109822F8201035
:102E0000DD48C18A109802EB800041801098401C78
:102E1000C0B210901098012806D0022815D00328BF
:102E200029D0042810D141E04FF6FF721421084642
:102E300000F0C2FBD1480088143880B24FF47842C9
:102E40001421099000F0B8FB79E3CC4800881438CD
:102E500080B24FF6FF721421099000F0ADFBC74815
:102E60004088143880B24FF478420146099014200B
:102E700000F0A2FB63E3C1484088143880B24FF6EB
:102E8000FF7201460990142000F096FBBB48408871
:102E9000143880B20990B9480088143880B24FF4D1
:102EA00078420890099900F087FB48E3BDF8440098
:102EB000BDF84810401A0990002802DB099802E08A
:102EC0003EE3099840420D90BDF8461011A8C08815
:102ED000081A0990002801DB099801E0099840428E
:102EE0000C900D9840430D900C9840430C90DDE9F8
:102EF0000C1008440590FDF7A7FACDE9060101F092
:102F0000D3FECDE90801FDF7D9FA80B20F90BDF8E4
:102F10004C00BDF85010401A0990002801DB0998B8
:102F200001E0099840420D9011A84189C089081A12
:102F30000990002801DB099801E0099840420C90B3
:102F40000D9840430D900C9840430C90DDE90C1017
:102F500008440590FDF778FACDE9060101F0A4FEDA
:102F6000CDE90801FDF7AAFA80B20E900E98FDF7A0
:102F700055FA09900F98FDF751FA08900999FDF755
:102F800097F90B900B98FDF7B2FA4FF066327C4B35
:102F9000CDE90801FDF7BEFA0DD30B98FDF7A7FAAE
:102FA000784A794BCDE90801FDF7CCFA03D30F98A5
:102FB00008B10E98E8BB0020109070484088143883
:102FC00080B209906D480088143880B24FF6FF72C5
:102FD0000890099900F0F0FA4FF47842142108465D
:102FE00000F0EAFA69490B98FDF730F90890FDF70F
:102FF00051FA80B211A90990C989BDF8502011ABCE
:103000005B89CDE90132CDE90310BDF84C00009099
:1030100011A8C0880890BDF848000790BDF8460088
:103020000690BDF84400059006A90EC9FFF7C6FD3D
:1030300095E2FFE7BDF84400BDF84C10401A099036
:10304000002801DB099801E0099840420D90BDF885
:10305000461011A84089081A0990002801DB099838
:1030600001E0099840420C900D9840430D900C9857
:1030700040430C90DDE90C1008440590FDF7E4F99D
:10308000CDE9060101F010FECDE90801FDF716FAC1
:1030900080B20F90BDF84800BDF85010401A09905A
:1030A000002801DB099801E0099840420D9011A821
:1030B000C188C089081A0990002801DB099801E03D
:1030C000099840420C900D9840430D900C98404355
:1030D0000C90DDE90C1008440590FDF7B5F9CDE939
:1030E000060101F0E1FDCDE90801FDF7E7F980B245
:1030F0000E900E98FDF792F909900F98FDF78EF952
:1031000008900999FDF7D4F80B900B98FDF7EFF9AB
:103110004FF066321A4BCDE90801FDF7FBF909D3F0
:103120000B98FDF7E4F9174A174BCDE90801FDF7B5
:1031300009FA50D20020109010484088143880B20C
:1031400009900E480088143880B24FF6FF7208903C
:10315000099900F031FA4FF478421421084600F042
:103160002BFA0A490B98FDF771F811E00E000020C8
:10317000100000204C00002014000020D00100208E
:103180006666EE3FCDCCCCCCCCCCF03F0000C84244
:103190000890FDF77FF980B211A90990C989BDF89F
:1031A000502011AB5B89CDE90132CDE90310BDF8A8
:1031B0004C00009011A8C0880890BDF84800079006
:1031C000BDF846000690BDF84400059006A90EC95A
:1031D000FFF7F4FCC3E1BDF84800BDF84C10401AFD
:1031E0000990002801DB099801E0099840420D9000
:1031F00011A8C1884089081A0990002801DB0998A4
:1032000001E0099840420C900D9840430D900C98B5
:1032100040430C90DDE90C1008440590FDF714F9CB
:10322000CDE9060101F040FDCDE90801FDF746F9C1
:1032300080B20F90BDF84400BDF85010401A0990BC
:10324000002801DB099801E0099840420D90BDF883
:10325000461011A8C089081A0990002801DB0998B6
:1032600001E0099840420C900D9840430D900C9855
:1032700040430C90DDE90C1008440590FDF7E4F89C
:10328000CDE9060101F010FDCDE90801FDF716F9C1
:1032900080B20E900E98FDF7C1F809900F98FDF7D7
:1032A000BDF808900999FDF703F80B900B98FDF70E
:1032B0001EF94FF06632AC4BCDE90801FDF72AF953
:1032C00009D30B98FDF713F9A84AA94BCDE90801DA
:1032D000FDF738F93DD200201090A64840881438F8
:1032E00080B20990A3480088143880B24FF6FF726C
:1032F0000890099900F060F94FF4784214210846CB
:1033000000F05AF99C490B98FCF7A0FF0890FDF7D4
:10331000C1F880B211A90990C989BDF8502011AB3C
:103320005B89CDE90132CDE90310BDF84C00009076
:1033300011A8C0880890BDF848000790BDF8460065
:103340000690BDF84400059006A90EC9FFF736FCAB
:1033500005E1BDF84800BDF84410401A0790FDF79C
:1033600054F809908348008828380790FDF74DF8F5
:1033700008900999FCF79CFF80494862BDF8480015
:10338000BDF8441008440490FDF73FF805907B48D1
:10339000406A014604900598FCF758FF079075486D
:1033A00000880590FDF73AF806900799FCF748FF6A
:1033B0004FF080410890FCF77BFF0990FDF751F832
:1033C00000B26E49888511A84089BDF84610401AA0
:1033D0000790FDF71AF8099066484088283807904A
:1033E000FDF713F808900999FCF762FF63498862BA
:1033F00011A84089BDF8461008440490FDF705F86F
:1034000005905E48806A014604900598FCF71EFF0F
:103410000790584840880590FDF700F806900799F6
:10342000FCF70EFF4FF080410890FCF741FF099038
:10343000FDF717F800B25149C8850846406A079061
:10344000FDF70FF80890002801DB089801E00898C4
:10345000404202280DDC4948806A0790FDF701F8D8
:103460000990002801DB099801E0099840420228F0
:1034700042DD002010903F484088143880B2099007
:103480003C480088143880B24FF6FF7208900999C2
:1034900000F092F84FF478421421084600F08CF8BE
:1034A00037A01021CDE900103248408809903148FA
:1034B0000088089002461A212820099BFEF730FC5C
:1034C0002E4890F8300008B9012000E000202B4978
:1034D00081F83000084690F8300030B190202D4936
:1034E0000870D0202C49087005E0D02029490870C8
:1034F00090202949087032E01F20284908804FF6A3
:10350000FF70FDF765FE26A01021CDE900101948D7
:103510004088099017480088089002466E212320B1
:10352000099BFEF7FDFB4FF47A7001F011F800F0F3
:1035300025FA4FF6FF70FDF74BFE15B000BD00BF3A
:103540000A2001F005F80A98401C80B20A900A98F7
:10355000B0F57A7F02DD00F067F801E000BF32E4E9
:1035600000BF00BFE9E700006666EE3FCDCCCCCCE3
:10357000CCCCF03FD00100200000C8421400002055
:103580005450204E65656420726561646A75737479
:103590002100000048000020490000200E0000200B
:1035A000546F7563682053637265656E2041646A69
:1035B000757374204F4B210070B504460D461646B6
:1035C0001848068004F10D018AB2193988B22B46D9
:1035D0002946FDF759FE05F10D0083B2193881B275
:1035E00022462046FDF750FE6A1C91B2621C90B242
:1035F000FDF7A2FE6A1C91B2621E90B2FDF79CFE1E
:103600006A1E91B2621C90B2FDF796FE6A1E91B2DC
:10361000621E90B2FDF790FE062229462046FDF775
:1036200031F970BD0E0000202DE9F0410920FDF7B1
:1036300079FA04460A2C47D10020FDF781FA0446A6
:103640002046FCF7F0FE05460022204BFCF76EFEFC
:103650000746FCF78FFF1E4948620220FDF770FA0B
:1036600004462046FCF7DFFE05460022174BFCF718
:103670005DFE0746FCF77EFF154988620420FDF7D2
:103680005FFA00B2124988850620FDF759FA00B2A8
:103690000F49C8850820FDF745FA0D4981F830002B
:1036A000084690F8300030B190200A490870D020C8
:1036B0000949087005E0D0200649087090200649A5
:1036C00008700120BDE8F0810020FBE7D0126341C3
:1036D00014000020480000204900002008B5012106
:1036E0008820FEF7D3FF0620ADF8000010208DF8EB
:1036F000030003208DF8020069461C48FDF7F8FB23
:1037000006211A48FDF788FC4FF40070ADF8000060
:1037100069461748FDF7ECFB4FF400711448FDF7BC
:103720007BFC4FF4A060ADF8000048208DF803004A
:1037300069460F48FDF7DCFB0E49A1F10A0000F0D5
:10374000A5F8FFF771FF08B1002008BD0AA000F03E
:103750001BFC4FF6FF70FDF73BFDFFF703FB00F08E
:103760000DF9FFF761FF0120EFE70000000C0140B9
:10377000001C01402A000020646F6E2774206164E1
:103780006A7573740A00000070B5064600250024AF
:1037900000201C4908601C49C1F8A4011949091DF1
:1037A0000860304600F0ACF9062000F0F7FE00207B
:1037B0001649C1F88401012000F0F0FE01201149F2
:1037C000086000201149C1F8840100BF11E04FF6E4
:1037D000FF7000EA440400200A49086001200B49F8
:1037E000C1F884010A48006808B1601C84B2681CF2
:1037F000C5B2102DEBDB241101200249091D086020
:10380000204670BD848121420080234200802142F5
:10381000208123422DE9FE4380460027002406E054
:103820004046FFF7B1FF2DF81400601C84B2052C50
:10383000F6DB002416E0601C85B20FE03DF81400B2
:103840003DF81510884207DD3DF814603DF815007D
:103850002DF814002DF81560681C85B2052DEDDBE0
:10386000601C84B2042CE6DB0027012405E03DF84F
:103870001400384487B2601C84B2042CF7DB0320A8
:1038800097FBF0F086B23046BDE8FE832DE9F041AB
:1038900004460D4607480078FFF7BCFF0646064879
:1038A0000078FFF7B7FF074626802F800120BDE88C
:1038B000F081000048000020490000207FB5044648
:1038C0000D4602A903A8FFF7E1FF064616B900203E
:1038D00004B070BD694601A8FFF7D8FF06460EB9CF
:1038E0000020F5E7BDF80400BDF80C10884206DCA6
:1038F000BDF80C10BDF80400323081420CDBBDF87D
:103900000C00BDF80410884236DCBDF80410BDF888
:103910000C00323081422FDABDF80000BDF80810EB
:10392000884206DCBDF80810BDF800003230814244
:103930000CDBBDF80800BDF8001088421CDCBDF8A7
:103940000010BDF808003230814215DABDF80C10C5
:10395000BDF80420881800EBD071C1F34F0121801D
:10396000BDF80810BDF80020881800EBD071C1F335
:103970004F0129800120ABE70020A9E770B51A4963
:10398000486A1A49FCF762FC0546FCF76AFD0446E2
:1039900021460020FDF752F91349886A1349FCF7C4
:1039A00055FC0546FCF75DFD044621460220FDF767
:1039B00045F90D48B0F92C100420FDF73FF90A48ED
:1039C000B0F92E100620FDF739F9074890F83010AD
:1039D0000820FDF727F90A2000F0BAFD0A24214645
:1039E0000920FDF71FF970BD140000208096184BC8
:1039F0002DE9F041044640480068002856D12CB11A
:103A00003E49A1F10A00FFF759FF3DE03B49A1F112
:103A10000A00FFF753FFB8B338491639B1F92C0043
:103A2000FCF7F3FC0746354916398889FCF7F6FCA4
:103A3000804632481638416A4046FCF707FC064685
:103A40003946FCF7ABFB0546FCF724FD2B4916393C
:103A50008881B1F92E00FCF7D8FC074627491639B2
:103A6000C88AFCF7DBFC804624481638816A404649
:103A7000FCF7ECFB06463946FCF790FB0546FCF7E5
:103A800009FD1E491639C8821C48163890F82000D6
:103A900000F0800038BBC0201849163981F820009A
:103AA000084681898182C18AC1831CE01348163887
:103AB00090F8200000F0800050B11048163890F8BF
:103AC000200020F080000D49163981F820000AE01E
:103AD00000210A4816388182C1834FF6FF700749DA
:103AE00016398881C8820548163890F8200000F001
:103AF0008000BDE8F0810000288123422A000020D8
:103B0000002100BF14E000F080021AB101220A4B2C
:103B10001A6002E00022084B1A604206100E0022D2
:103B2000064B1A600122064BC3F884214A1CD1B20D
:103B30000829E8DB70470000A481234284812142E8
:103B40000080214270B500241AA51E48C07D1128AE
:103B50002DD11C4890F824001B490988C1F3072186
:103B6000884224D1174890F82500174909788842DF
:103B70001DD116A000F008FAFEF7A4FE1CA000F06C
:103B800003FA104890F82640240290F827002044B9
:103B9000A0F108042846FCF7E9FA06460A4832462E
:103BA00029460368074801F03BF8012070BD00205A
:103BB000FCE7000068656C6C6F20776F726C640ABC
:103BC00000000000DE010020900000202A2A2A2A9E
:103BD0002A2A2A2A554450205061636B65742A2A88
:103BE0002A2A2A2A2A2A2A2A2A2A2A2A0A000000D3
:103BF0000A2A2A2A2A2A2A2A2A2A2A2A2A2A2A2A45
:103C00002A2A2A2A2A2A2A2A2A2A2A2A2A2A2A2A14
:103C10002A00000010B540F225511D4800F04AF876
:103C200010B31B4800F002F9C4B21A48008800F42F
:103C30000040C8B91748008800F4804060B10A2CE1
:103C400003D000201349088020E01248008840F487
:103C500000401049088019E00D2C06D10D4800885D
:103C600040F480400B49088010E00A480088C0F307
:103C70000D0009490C5407480088401C054908807C
:103C800008460088C72801DD0020088010BD00001C
:103C9000003801400C0000200801002021B1828979
:103CA00042F40052828104E082894DF6FF731A408B
:103CB0008281704770B50246002400230025002051
:103CC00040F66A16B14200D100BFC1F3421501F0BF
:103CD0001F03012606FA03F3012D02D19689334012
:103CE00006E0022D02D1168A334001E0968A334065
:103CF0000C12012606FA04F41688344013B10CB1F4
:103D0000012000E0002070BDF0B50346002400262D
:103D10000025002040F66A17B94200D100BF1846BE
:103D2000C1F3421401F01F06012707FA06F5012C22
:103D300001D10C3004E0022C01D1103000E014302D
:103D40001AB107682F43076002E00768AF430760B6
:103D5000F0BD00002DE9F04786B005460E46002470
:103D6000A24600BFA1460027B08900B100BF2F4680
:103D70002C8A4CF6FF700440F08804432C82AC89F6
:103D80004EF6F3100440B088318908437189084326
:103D90000443AC81AC8A4FF6FF400440B089044331
:103DA000AC8201A8FEF782FC1F48874202D1DDF8F1
:103DB00010A001E0DDF80CA0A88900F4004040B19B
:103DC0000AEBCA0000EB0A1031684900B0FBF1F8B9
:103DD00007E00AEBCA0000EB0A1031688900B0FB6B
:103DE000F1F86420B8FBF0F004012009642101FB24
:103DF0001089A88900F4004040B1322000EBC900CE
:103E0000B0FBF1F000F00700044308E0322000EBC3
:103E100009106421B0FBF1F000F00F0004432C8185
:103E200006B0BDE8F08700000038014001468888F0
:103E3000C0F308007047000008B500F067FB4FF4BE
:103E4000A060FEF7E1FB4FF4E131684600F02CF88A
:103E5000FEF7BEFC00F0C8FB40F27641142000F0F3
:103E6000FCFC50220C490D4800F01EFEFDF7D2FA72
:103E7000FDF72CF9FCF75EFFFCF79AFD084908688E
:103E800080470848006820F00100401C0549086090
:103E9000FEF7FAFD08BD00008A0000208400002023
:103EA00014000020B000002070B505460C462046E6
:103EB00000F020FF284670BDD0E900211161704755
:103EC000D0E900215161704700B50346187A28B146
:103ED0001846FFF7F5FF0020187204E01846FFF7B8
:103EE000EBFF0120187200BDF8B505460C461646DA
:103EF0002349601A8C421AD009DC2248204428B396
:103F0000B0F5806F1DD0B0F5006F24D114E0B0F58E
:103F1000806F07D0B0F5006F1DD101218020FEF722
:103F2000B5FB18E001214020FEF7B0FB13E00121B2
:103F30002020FEF7ABFB0EE001211020FEF7A6FBD0
:103F400009E001210820FEF7A1FB04E00121042083
:103F5000FEF79CFB00BF00BF2C606E6010208DF848
:103F60000300B0B2ADF8000003208DF802006946EE
:103F70002046FCF7BDFF2846FFF7A2FF2846F8BD04
:103F80000014014000F8FEBF0FB4054B10B503A9A3
:103F9000044A029800F030F910BC5DF814FB0000F0
:103FA0008D4A0008080000202DE9F0474FF0060A6E
:103FB000062600250027A8464FF0FF397548B0F8BF
:103FC00000A075480688BAF1000076D0A0F56E40D2
:103FD000EE3858B3A0F58850113800286ED146B994
:103FE0006C48FCF747FE0446042C1ED02046BDE872
:103FF000F0874EF6EE60864210D16648FCF73AFE36
:104000000446042C01D02046F1E700216248FCF769
:1040100071FE0446042C08D02046E8E7FCF7AAFC11
:104020000446042C01D02046E1E7B0E086BB002521
:1040300023E05848C088594931F81510884201D109
:104040000FFA85F94D4516D0544931F815005449F9
:10405000FCF734FD8046B8F1010F0CD0504A1288AD
:1040600091B24E4A32F81500FCF786FD0746042F40
:1040700001D03846BBE7681C85B20F2DD9DB002183
:104080004448FCF737FE0446042C02D02046AEE735
:1040900007E04148FCF7EEFD0446042C1FD0204603
:1040A000A5E74FF6FF70864212D13B48FCF7E2FDD0
:1040B0000446042C03D0204699E711E05FE000217C
:1040C0003448FCF717FE0446042C08D020468EE73F
:1040D000FCF750FC0446042C01D0204687E756E04C
:1040E00036B9FCF747FC0446042C47D020467EE74F
:1040F0004FF6FF70864207D12748FCF7BBFD044608
:10410000042C3BD0204672E7002524E02248801D85
:104110000088224931F81510884201D10FFA85F93B
:104120004D4516D01D4931F815001D49FCF7C6FC58
:104130008046B8F1010F0CD0194A128891B2174A83
:1041400032F81500FCF718FD0746042F01D0384659
:104150004DE7681C85B20F2DD8DB00210E48FCF717
:10416000C9FD0446042C01D0204640E70948FCF76D
:1041700081FD0446042C01D0204638E707E0FCF717
:10418000F9FB0446042C01D0204630E700BF00BFF5
:1041900004202CE70000010800080108500000205E
:1041A0007000002002E008C8121F08C1002AFAD1DE
:1041B00070477047002001E001C1121F002AFBD1A7
:1041C000704700000149086070470000EC000020C3
:1041D00010B5202204490548FFF786FE2022044935
:1041E0000448FFF781FE10BD00180140F0000020D8
:1041F000000C0140FC0000202DE9FF4F8DB09B46D4
:104200000F460446002606E025280BD05A460F9993
:104210009047641C761C20780028F5D111B03046F8
:10422000BDE8F08F0025A8460122984900E005432B
:1042300014F8013F203B02FA03F00842F7D120783E
:104240002E2817D114F8010F45F004052A280ED0A6
:104250006FF02F022078A0F1300109290AD808EB6D
:10426000880102EB410100EB0108641CF2E757F8FA
:10427000048B641C20786C280DD004DC4C2812D0F0
:104280006A2811D104E074280DD07A280CD10AE0F4
:1042900045F4001507E0617845F48015814202D1AC
:1042A000641C05F58015641C2278692A45D008DC59
:1042B000002AB3D0582A69D0632A10D0642A08D1C2
:1042C0003BE0702A67D0732A13D0752A5CD0782A15
:1042D0005CD010465A460F999047761CD3E017F8E9
:1042E000040B8DF8000000208DF80100E946012044
:1042F00003E057F8049B4FF0FF3069074FF00005CB
:1043000001D40AE06D1C45450DDA8542FADB19F847
:1043100005100029F6D106E06D1C8542FCDB19F87A
:1043200005100029F8D12E4404E019F8010B5A4673
:104330000F9990476D1EF8D2A5E00A200021CDE923
:104340000801C5F3025002280DD001CFC117031E8A
:1043500071F100030DDA4FF0000CD0EB0C006CEBA8
:1043600001012D2308E0FF1D27F00707F7E80201F0
:10437000EDE72B0504D52B238DF8283001233BE0F6
:10438000EB0739D02023F7E70A2000E010200021B6
:10439000CDE9080107E01020002145F00405CDE932
:1043A00008014FF00808C5F3025002280FD001CFD2
:1043B00000214FF0000A2B071FD5702A0DD0DDE930
:1043C00008C38CF0100C5CEA030C0CD015E0FF1D48
:1043D00027F00707F7E80201EBE740228DF82820D5
:1043E0004FF0010A0BE050EA010306D030238DF8AC
:1043F00028308DF8292002239A46582A04D024A276
:104400000DF120090B9209E026A2F9E7DDE9082366
:10441000FCF7CCF80B9B9B5C09F8013D50EA0102CC
:10442000F4D1ADEB090020300890680701D44FF0BB
:1044300001080899884502DDA8EB010000E0002092
:104440008046002506E00AA85A46405D0F9990472D
:104450006D1C761C5545F6DB04E030205A460F995A
:104460009047761CB8F10001A8F10108F5DC05E0E1
:1044700019F8010B5A460F999047761C0899481E67
:1044800008900029F4DC641CC5E60000092801003E
:1044900030313233343536373839616263646566BA
:1044A000000000003031323334353637383941427C
:1044B000434445460000000030B504460B46002149
:1044C000012A03D11131A3F108000144022A03D1CA
:1044D000891DA3F10800014406E06078257840EAD0
:1044E00005200144A41C9B1E012BF6D813B1207893
:1044F00001EB002102E088B200EB1141080C00281A
:10450000F9D14FF6FF7581EA050030BD10B56FF0A7
:104510000400FEF75FFA0A4800680A49B0FBF1F0B0
:10452000094908700846007800EB4001C1EBC01053
:104530004FF6FF7101EAC0000449088010BD000079
:10454000C400002000127A000200002004000020B5
:104550000146114A12884A434FF0E0235A61002273
:104560009A611A46126942F001021A6100BF4FF0C7
:10457000E022106900F001021AB100F48032002A32
:10458000F5D04FF0E022126922F001024FF0E02353
:104590001A6100229A617047040000200146114A06
:1045A00012784A434FF0E0235A6100229A611A467A
:1045B000126942F001021A6100BF4FF0E022106957
:1045C00000F001021AB100F48032002AF5D04FF059
:1045D000E022126922F001024FF0E0231A6100226A
:1045E0009A6170470200002010B510204E49086003
:1045F000FF220021104600F0CFF900204B4908604F
:104600000021082000F0A4F90021092000F0A0F901
:1046100000210C2000F09CF900210D2000F098F9F9
:10462000FE210A2000F094F919210B2000F090F9E6
:10463000FF21042000F08CF91921052000F088F9F1
:10464000FF21062000F084F91F21072000F080F9E7
:10465000B021382000F07CF93F21282000F078F9C3
:104660003021292000F074F9F921302000F070F990
:10467000F721312000F06CF90D21C02000F068F91D
:104680000021C12000F064F93322C221802000F013
:1046900083F91221C62000F05BF90C21C72000F03D
:1046A00057F91521C42000F053F9DC21CA2000F08D
:1046B0004FF90521CB2000F04BF91D480178E4208B
:1046C00000F046F91A484178E52000F041F9184811
:1046D0008178E22000F03CF91548C178E32000F031
:1046E00037F913480179E02000F032F91048417998
:1046F000E12000F02DF94FF48071002000F0ADF8BA
:104700004FF48071102000F0A8F81F2000F006F987
:10471000C0221B21802000F03FF904221F218020AD
:1047200000F03AF910BD00001008014080000020A0
:10473000840000202DE9F04105460F46392000F0A5
:10474000A5F810B90020BDE8F081294801780020C3
:1047500000F0FEF826480088C0F30721012000F091
:10476000F7F800213A2000F0B7F82149086000214D
:104770003A2000F0B1F81E49096841EA00201C49BE
:10478000086000213A2000F0A7F8044600213A20F2
:1047900000F0A2F844EA0024241F00213A2000F08F
:1047A0009BF8064600213A2000F096F846EA0026DB
:1047B000681EA04200D26C1E06F0800008B90024DA
:1047C00003E03946204600F06BF8094801780C20D8
:1047D00000F0BEF806480088C0F307210D2000F065
:1047E000B7F840221E21802000F0D6F82046AAE724
:1047F0008000002070B504460D46FF21022000F025
:10480000A7F81921032000F0A3F8FF202044C1B22B
:10481000062000F09DF841F6FF102044C0F3072168
:10482000072000F095F8002211467A2000F0B4F835
:104830002946204600F098F808221F21802000F029
:10484000ABF81C2000F022F800F0020020B1082292
:104850001F21A02000F0A0F870BD70B505460C46E1
:104860002946D42000F074F8E1B2D62000F070F8A8
:10487000C4F30721D72000F06BF800BFEA2000F056
:1048800005F800F001000028F8D170BD10B504460D
:10489000204600F043F82146002000F01DF810BD2E
:1048A00070B505460C4610200A4908603A20FDF70D
:1048B00067FF05E06D1E0020FDF762FF2070641C9D
:1048C000002DF7D10020207010200249091F086038
:1048D00070BD00001408014070B505460C46002666
:1048E00010200D49086004F01F0040EA050630461C
:1048F000FDF746FFFF20FDF743FF064604F080006A
:1049000018B1FF20FDF73CFF064610200249091FA1
:104910000860304670BD00001408014010B5044620
:1049200004F060000949097888420ED003221F2153
:10493000A02000F031F8C4F341121F21802000F0C4
:104940002BF804F060000149087010BD7C000020C5
:1049500070B504460D462046FFF7E0FF2A46214683
:10496000402000F019F870BD70B504460D461020C7
:10497000084908607A20FDF703FF04E0641E2878E8
:10498000FDF7FEFE6D1C002CF8D110200149091F17
:10499000086070BD140801402DE9F04104460D4641
:1049A0001646002710200949086005F01F0040EA5C
:1049B00004073846FDF7E4FE37463846FDF7E0FECB
:1049C00010200249091F0860BDE8F0811408014069
:1049D00010B502460B460021292B01D2002010BD44
:1049E000107B082802D1507B062801D00020F6E772
:1049F0000AE001F12600105C054C645CA04201D085
:104A00000020ECE7481CC1B20429F2DB0120E6E7F4
:104A10009F00002010B502460B4600212A2B01D230
:104A2000002010BD107B082801D1507B08B1002068
:104A3000F7E7907B452801D00020F2E70AE001F17A
:104A40001E00105C054C645CA04201D00020E8E729
:104A5000481CC1B20429F2DB0120E2E79F000020DC
:104A600030B5044600202076607640202075002076
:104A700060754020A0750022142104F10E00FFF79C
:104A80001BFD0546280A2076657630BD00BF054A25
:104A9000128802F04002002AF9D0C2B2014B1B1D5D
:104AA0001A8070470038014030B5034600200A4C98
:104AB000227004E00C5C094D2C54441CE0B2042824
:104AC000F8DB002004E01C5C054D2C54441CE0B2D3
:104AD0000628F8DB30BD0000980000209F00002071
:104AE00099000020FFF7A8F90C48FFF7E5F913E05B
:104AF0000B480078401C0A490870084600782828AE
:104B000005D10848FFF7E0F9002005490870192091
:104B1000FFF71EFDFBF792FEEAE70000FC00002015
:104B200000000020F000002070B505460024284653
:104B300000F04CF800202875022068750BE004F1A5
:104B40001600295C0A3029540E48015D04F1160054
:104B50002954601CC4B2062CF1DB00240BE004F1E4
:104B60001C00295C0A3029540748015D04F11C002F
:104B70002954601CC4B2042CF1DB29462A20FFF71B
:104B800039FE70BD990000209F00002070B50446DA
:104B90000D46204600F01AF8204600F029F80020C3
:104BA00084F8220094F82400F72804DD94F8250006
:104BB000401C84F8250094F82400083084F8240070
:104BC00021462846FFF716FE70BD00000146002072
:104BD00008E0821D8A5C0A54044A135C821D8B54CF
:104BE000421CD0B20628F4DB704700009900002078
:104BF00030B5054600240BE004F11A00295C001DC5
:104C000029540648015D04F11A002954601CC4B2FD
:104C1000042CF1DB2846FFF723FF30BD9F00002066
:104C20002DE9F0470446894615461F464FF0000A15
:104C300000262046FFF7CAFFDC2D00D9DC2505F150
:104C40001C0A4FEA1A20207484F811A02046FFF7AE
:104C5000CFFF380A04F8240F6770280AA07005F106
:104C60000800E070002020716071243C05E019F814
:104C7000061006F12A002154761CAE42F7D305F146
:104C80001001012204F11A00FFF716FC80464FEADA
:104C9000182084F8280084F8298005F12A0021468C
:104CA000FFF7A8FDBDE8F0872DE9F04106460F4665
:104CB000FBF751FD041E0D4618BF0120284320F0CC
:104CC0000040C0F17F6000F1E040C00F0ED0301C0A
:104CD00018BF0120384320F00040C0F17F6000F190
:104CE000E040C00F04BF0120FFF76CFA20462946C0
:104CF000BDE8F08110B586B00446012144F20400FD
:104D0000FDF7C4FC4FF40070ADF8140003208DF8DB
:104D1000160018208DF8170005A91C48FCF7E8F8C4
:104D20004FF48060ADF8140004208DF8170005A939
:104D30001648FCF7DDF825208DF8000003208DF8DB
:104D400001008DF8020001208DF803006846FDF790
:104D500023FC01940020ADF80800ADF80A00ADF87E
:104D60000C00ADF810000C20ADF80E0001A90848A9
:104D7000FEF7F0FF012240F225510548FEF7C4FF7F
:104D800001210348FEF78AFF06B010BD000801406C
:104D9000003801400000000000000000000000009A
:104DA000000000003F400000000000000000300054
:104DB000400030004000000009000BC03D000BC067
:104DC0003D00090018C024407FE0224031800000EF
:104DD000180024C01B000D803240018003801C405D
:104DE00027401C80074000401000600000000000C9
:104DF000000000000000000000001F802040402054
:104E00000000402020401F80000000000900060034
:104E10001F80060009000000040004003F80040019
:104E2000040000000010006000000000000000000E
:104E3000040004000400040004000000000000401E
:104E40000000000000000000002001C00600380043
:104E5000400000001F802040204020401F800000B4
:104E6000000010403FC000400000000018C021407A
:104E7000224024401840000010802040244024405C
:104E80001B80000002000D0011003FC00140000027
:104E90003C80244024402440238000001F80244084
:104EA00024403440038000003000200027C0380038
:104EB000200000001B802440244024401B80000070
:104EC0001C0022C0224022401F8000000000000081
:104ED0000840000000000000000000000460000026
:104EE00000000000000004000A0011002080404083
:104EF0000900090009000900090000000000404005
:104F0000208011000A000400180020002340240023
:104F1000180000001F802040274029401F4000004B
:104F2000004007C039000F0001C0004020403FC0D2
:104F3000244024401B8000001F802040204020404F
:104F40003080000020403FC0204020401F800000F3
:104F500020403FC024402E4030C0000020403FC0D1
:104F600024402E00300000000F001080204022401E
:104F70003380020020403FC0040004003FC02040B6
:104F8000204020403FC02040204000000060202002
:104F900020203FC02000200020403FC024400B00C4
:104FA00030C0204020403FC020400040004000C0B2
:104FB0003FC03C0003C03C003FC0000020403FC059
:104FC0000C4023003FC020001F8020402040204094
:104FD0001F80000020403FC0244024001800000033
:104FE0001F802140214020E01FA0000020403FC042
:104FF0002440260019C0004018C02440244022400C
:1050000031800000300020403FC0204030000000D0
:1050100020003F80004000403F80200020003E00F4
:1050200001C0070038002000380007C03C0007C05E
:1050300038000000204039C0060039C02040000080
:105040002000384007C0384020000000304021C018
:105050002640384020C00000000000007FE04020D3
:1050600040200000000070000C00038000400000A1
:105070000000402040207FE00000000000002000F1
:105080004000200000000000001000100010001080
:1050900000100010000000004000000000000000B0
:1050A000000002800540054003C0004020003FC0D2
:1050B00004400440038000000000038004400440DA
:1050C0000640000000000380044024403FC0004030
:1050D000000003800540054003400000000004403C
:1050E0001FC0244024402000000002E0055005506D
:1050F0000650042020403FC00440040003C000408C
:105100000000044027C00040000000000010001014
:10511000041027E00000000020403FC001400700CD
:1051200004C00440204020403FC000400040000038
:1051300007C0040007C0040003C00000044007C00B
:105140000440040003C00040000003800440044009
:1051500003800000041007F00450044003800000A6
:10516000000003800440045007F00010044007C012
:105170000240040004000000000006400540054015
:1051800004C00000000004001F8004400040000034
:10519000040007800040044007C0004004000700EE
:1051A00004C0018006000400060001C0070001C021
:1051B00006000000044006C0010006C004400000D4
:1051C0000410071004E00180060004000000044001
:1051D00005C00640044000000000000004007BE021
:1051E00040200000000000000000FFF00000000070
:1051F000000040207BE00400000000004000800030
:1052000040002000200040000000000000000000DE
:1052100000000000000000000000000000001FCCA3
:10522000000C0000000000000000080030006000DA
:105230000800300060000000022003FC1E20022055
:1052400003FC1E200220000000000E1811043FFF86
:1052500010840C78000000000F0010840F3800C08C
:10526000077818840078000000780F8410C4112497
:105270000E9800E400840008080068007000000038
:10528000000000000000000000000000000007E037
:1052900018182004400200000000400220041818E2
:1052A00007E00000000000000240024001800FF013
:1052B00001800240024000000080008000800FF862
:1052C00000800080008000000001000D000E000042
:1052D000000000000000000000000080008000804E
:1052E00000800080008000800000000C000C0000A6
:1052F0000000000000000000000000060018006030
:105300000180060018002000000007F008081004C3
:105310001004080807F000000000080408041FFC3F
:10532000000400040000000000000E0C1014102403
:10533000104411840E0C000000000C18100411041D
:10534000110412880C700000000000E00320042407
:1053500008241FFC0024000000001F981084110482
:105360001104108810700000000007F00888110474
:10537000110418880070000000001C00100010FCD0
:1053800013001C001000000000000E3811441084AF
:10539000108411440E38000000000700088C1044EF
:1053A0001044088807F00000000000000000030C13
:1053B000030C0000000000000000000000010106D6
:1053C00000000000000000000000008001400220FA
:1053D000041008081004000002200220022002200D
:1053E000022002200220000000001004080804101F
:1053F000022001400080000000000E001200100C8E
:10540000106C10800F00000003E00C1813E414244B
:1054100017C4082807D000000004003C03C41C4047
:10542000074000E4001C000410041FFC11041104D8
:1054300011040E880070000003E00C181004100422
:10544000100410081C10000010041FFC10041004AD
:105450001004080807F0000010041FFC11041104D8
:1054600017C410040818000010041FFC11041100D8
:1054700017C010000800000003E00C18100410040E
:1054800010441C780040000010041FFC10840080B1
:10549000008010841FFC10040000100410041FFC86
:1054A00010041004000000000003000110011001AE
:1054B0001FFE10001000000010041FFC11040380E8
:1054C0001464181C1004000010041FFC10040004D5
:1054D00000040004000C000010041FFC1F0000FC6E
:1054E0001F001FFC1004000010041FFC0C0403002C
:1054F00000E010181FFC100007F00808100410044A
:105500001004080807F0000010041FFC108410802D
:10551000108010800F00000007F0081810241024DD
:10552000101C080A07F2000010041FFC11041100EF
:1055300011C011300E0C000400000E1C1104108468
:10554000108410441C3800001800100010041FFCC8
:10555000100410001800000010001FF810040004D0
:10556000000410041FF8100010001E0011E0001CC1
:10557000007013801C0010001FC0103C00E01F00D2
:1055800000E0103C1FC000001004180C163401C0CD
:1055900001C01634180C100410001C00130400FC89
:1055A00013041C00100000000804101C1064108478
:1055B00013041C04101800000000000000007FFE0F
:1055C0004002400240020000000030000C00038056
:1055D0000060001C00030000000040024002400286
:1055E0007FFE0000000000000000000020004000DE
:1055F0004000400020000000000100010001000107
:1056000000010001000100010000400040002000F6
:105610000000000000000000000000980124014488
:105620000144014400FC000410001FFC0088010438
:105630000104008800700000000000700088010470
:1056400001040104008800000000007000880104CB
:10565000010411081FFC0004000000F8014401448B
:105660000144014400C800000000010401040FFCD3
:105670001104110411001800000000D601290129AD
:10568000012901C90106000010041FFC008401006B
:105690000100010400FC000400000104190419FCCD
:1056A00000040004000000000000000300010101EC
:1056B000190119FE0000000010041FFC0024004026
:1056C00001B4010C010400000000100410041FFCD0
:1056D0000004000400000000010401FC01040100BA
:1056E00001FC0104010000FC010401FC0084010034
:1056F0000100010400FC0004000000F801040104A2
:105700000104010400F80000010101FF008501040B
:10571000010400880070000000000070008801048F
:105720000104010501FF00010104010401FC0084E2
:105730000104010001800000000000CC01240124CC
:10574000012401240198000000000100010007F875
:105750000104010400000000010001F8000400043D
:105760000004010801FC0004010001800170000C2C
:10577000001001600180010001F0010C003001C047
:105780000030010C01F0010000000104018C0074E4
:105790000170018C01040000010101810171000E02
:1057A000001801600180010000000184010C013437
:1057B00001440184010C0000000000000000000012
:1057C00001003EFC4002400200000000000000001A
:1057D000FFFF0000000000000000400240023EFC0D
:1057E0000100000000000000000060008000800058
:1057F00040004000200020000000000000000008E1
:1058000000000800000800000800000C0020043818
:1058100020F51F20A502A09402FC9702905402904C
:10582000141090123010F23F00020000020000023B
:105830000000020000020000020000000000000062
:1058400000000000000000000000000000003E001A
:10585000001A000010C07F0840C008E0A00FD82147
:10586000084C2508242409202C1EE02F104020205D
:105870000030E000307000F01F00E0030020000066
:105880000000000000000000000000000000000018
:105890000400100C801006C0180240FF01400801EF
:1058A000408810200010C00310403E11201211202B
:1058B0001211E0FF1F609318209108108808100F44
:1058C00008F003087000082000080000080000002D
:1058D00000000000000000000400000C00000C00AC
:1058E0000004000004800004800004C000044000A4
:1058F00004C0FF0740FF0740000260000260000292
:10590000600002200002000002000002000002000D
:105910000002000000000000000000000000000085
:105920000000000000002000082000081000080807
:10593000000C0C00040308FC01F83F0008440000C0
:10594000840100040700060C00021C00023800025B
:105950003000003000002000002000002000000087
:10596000000000000000008000008C008087000024
:1059700081000081001889003089000085200085A1
:1059800060186570B0D43F804C00C04C00BE400031
:105990008C40008440008042008043008041000031
:1059A00001000000000000000000000000000000F6
:1059B00000000001000001001C01F88F01488C006C
:1059C00040840060820020820000F97F00F01FFC0C
:1059D0008700404400204C00104C00184C00184731
:1059E00000004600004000004000000000000000F1
:1059F000000000000000000008000008000418007B
:105A00001808007008006008200008E0FF0FC000C0
:105A100008000008000004F8FF07F0830400600499
:105A2000003004001C04000E0400040400000C00FC
:105A3000000C000000000000000000000000000852
:105A40000000080000040010041E30FE0F300406A1
:105A5000000002000001000810104610F0D30810EA
:105A6000900D101007F08907F8FB0C101A180002AF
:105A70003000033000002000002000002000000063
:105A8000000000000000000400000400000400000A
:105A9000040708FE03180601188000000000000833
:105AA00000000800000400000400040400FCFF7F64
:105AB00008040000040000060000020000020000CC
:105AC00000000000000000000000000000000004D2
:105AD00000000400008400804400402200301A00CE
