:020000040800F2
:10000000E00B0020490100085101000853010008DD
:1000100055010008570100085901000800000000C0
:100020000000000000000000000000005B0100086C
:100030005D010008000000005F0100086101000888
:100040006301000863010008630100086301000800
:1000500063010008630100086301000863010008F0
:1000600063010008630100086301000863010008E0
:1000700063010008630100086301000863010008D0
:1000800063010008630100086301000863010008C0
:1000900063010008630100086301000863010008B0
:1000A00063010008630100086301000863010008A0
:1000B00063010008192B00086301000863010008B0
:1000C0006301000863010008630100086301000880
:1000D000630100086D3D000863010008630100082A
:1000E0006301000863010008630100086301000860
:1000F0006301000863010008630100086301000850
:10010000630100086301000863010008630100083F
:10011000630100086301000863010008630100082F
:10012000630100086301000863010008630100081F
:10013000DFF810D000F060FB00F020F80048004726
:10014000054D0008E00B00200648804706480047A0
:10015000FEE7FEE7FEE7FEE7FEE7FEE7FEE7FEE777
:10016000FEE7FEE7B92A000831010008421C10F83A
:10017000011B0029FBD1801A7047000070B5054CA7
:10018000054D03E0206820448047241DAC42F9D18E
:1001900070BD0000A4780008A8780008F0B480EAD8
:1001A0000102D40F4200B2EB410F02D202460846D0
:1001B00011464A0042D0C30DDDB2C1F3C752AD1A99
:1001C000202D35DAC1F3160141F4000204B1524288
:1001D000C5F1200602FA06F12A411044B3EBD05FC4
:1001E00023D0C4B1012DA0EBC35009DCF0BC4FF00B
:1001F000004202EAC352DBB200F5000000F020BA70
:10020000400000F1807000EBC350A0F1807040EA24
:10021000D170490009E0490841EAC071A0EBC35020
:1002200000F50000400800EBC350F0BC00F0FFB93F
:100230006142012202EB4101001BF6E7F0BC70476E
:1002400081F00041AAE780F00040A7E780EA0102C0
:1002500010B502F00043400022D04A001FD0010E2A
:1002600001EB1261C0F35600C2F3560240F40000E5
:1002700042F40002A0FB022000047F39140400D0E5
:10028000401C50EA124001D44000491EC2B20C0684
:1002900004EBD010401C4008802A02D003E000206C
:1002A00010BD20F00100002900DA0020184310BD25
:1002B00030B480EA010202F0004530F0004221F043
:1002C000004013D090B1C30DD40DC2F31601C0F39A
:1002D0001600E41A41F4000140F400027D3491421A
:1002E00001D3641C00E04900002C02DA30BC00207D
:1002F00070474FF400000023914201D3891A034351
:1003000040084FEA4101F7D151B1914202D14FF07B
:10031000004105E002D24FF0010101E06FF0010160
:1003200003EBC450284430BC00F081B92DE9F04DF6
:1003300081EA030404F0004B21F0004514464FF01D
:10034000000A23F0004150EA050220D054EA0102DD
:100350001DD0C5F30A570246C5F31303C1F31300BA
:10036000C1F30A5640F4801543F48013A7EB060846
:10037000101BD64608F2FD3873EB050002D308F1D6
:10038000010801E092185B41B8F1000F03DA002088
:100390000146BDE8F08D00204FF4801106468446EA
:1003A0000EE0171B73EB050705D3121B63EB050368
:1003B00006434CEA010C49084FEA300092185B41B1
:1003C00050EA0107EDD152EA030012D082EA04009C
:1003D00083EA0501084305D0101BAB4106D2012278
:1003E000002306E000224FF0004302E06FF001021C
:1003F00053101AEB06004CEB085110EB0A0041EBCE
:100400000B01BDE8F04D00F049B9C10F80EAE07082
:100410000844CA079623002100F012B9962300224F
:10042000114600F00DB90EB5C10F80EAE070084426
:10043000CA07002140F233438DE80E000A460B46FE
:1004400000F03BF903B000BD0EB540F2334102911C
:100450000021CDE900110A460B4600F02EF903B049
:1004600000BD00F0004220F00040C10DC0F31600B6
:1004700040F400007F2901DA00207047962903DC50
:10048000C1F19601C84001E096398840002AF4D0B5
:100490004042704720F00040C10DC0F3160040F408
:1004A00000007F2901DA00207047962903DCC1F1A2
:1004B0009601C8407047963988407047C1F30A5288
:1004C00010B5C1F3130140F2FF3341F480119A4299
:1004D00001DA002010BD40F233439A42A2F23342C7
:1004E00003DC524200F093F810BD904010BD00F0C4
:1004F000004230F000400AD0C10D01F56071C0F338
:10050000160042EA0151C20840071143704700201B
:100510000146704730B5041E71F1000404DB4FF052
:100520000044404264EB0101141E73F1000405DB3A
:100530001C464FF00043524263EB04038B4208BF5A
:10054000824230BD30B5041E71F1000404DB4FF06F
:100550000044404264EB0101141E73F1000405DB0A
:100560001C464FF00043524263EB0403994208BF1C
:10057000904230BD01F0004330B421F0004150EA18
:10058000010206D00A0DA2F56072C1F31301002A20
:1005900002DC30BC00207047440F44EAC104C100B3
:1005A000E01830BC00EBC25000F041B82DE9F05F1C
:1005B0000546002092469B468846064681464024D2
:1005C0001BE0284641464746224600F020F85346A5
:1005D0005A46C01A914110D311461846224600F0DF
:1005E0001DF92D1A67EB01084F4622460120002114
:1005F00000F014F917EB00094E41201EA4F101048C
:10060000DFDC484631462A464346BDE8F09F202AB3
:1006100004DB203A21FA02F00021704721FA02F3AC
:10062000D040C2F12002914008431946704700298A
:10063000A8BF7047401C490008BF20F00100704768
:1006400010B4B0FA80FC00FA0CF050EA010404BFC8
:1006500010BC704749B1CCF1200421FA04F411FA1E
:100660000CF118BF012121430843A3EB0C01CB1D62
:100670004FEA00614FEA102042BF002010BC7047D3
:1006800000EBC35010440029A4BF10BC7047401CAD
:10069000490008BF20F0010010BC704710B5141EBF
:1006A00073F1000408DA401C41F1000192185B412B
:1006B0001A4301D120F0010010BD2DE9F04D924602
:1006C0009B4611B1B1FA81F202E0B0FA80F2203219
:1006D000904600F0A3F804460F4640EA0A0041EABB
:1006E0000B0153465A46084313D0114653EA010002
:1006F00019D0C8F140025046FFF789FF05460E4663
:1007000050465946424600F089F8084305D001207A
:1007100004E020463946BDE8F08D0020054346EA56
:10072000E0762C4337430A986305E40AA0EB0800FF
:100730000022FD0A44EA47540A3002D5002001464F
:10074000E9E7010510196941DDE90845001969412A
:10075000BDE8F04DA2E72DE9F04D00231A461B1A23
:100760008A4103DB00200146BDE8F08DC1F30A5247
:10077000C1F3130141F480154FF0000BD10702D1F2
:1007800000186D41521E0027044640F2FF11384602
:1007900001EB620A3E468046024600204FF480117B
:1007A000FFF735FFC2197141BB1846EB0100B4EBEE
:1007B000030C75EB000C04D3E41A65EB0005174637
:1007C0000E46241908F101006D4180463428E3DD0E
:1007D000F91946EB0600091BA84103D24FF0FF327E
:1007E000134601E0002213461BEB070046EB0A51BB
:1007F000BDE8F04DFFF752BF064C074D06E0E0683C
:1008000040F0010394E8070098471034AC42F6D357
:10081000FFF792FC84780008A4780008202A04DB03
:10082000203A00FA02F1002070479140C2F1200303
:1008300020FA03F3194390407047000010B51048A8
:100840000078C0F3400010B101F016FC16E00C482F
:10085000007800F0010010B101F032FD0EE0084810
:100860000078C0F3C00010B101F0B6FC06E0044807
:100870000078C0F3401008B101F010FE10BD000078
:10088000B00000202DE9F04306460F4690460024B4
:1008900045460320A0EB48093CE07A1B91B232198F
:1008A00090B200F049FD3A1B91B2721990B200F07B
:1008B00043FD3A1991B2721990B200F03DFD7A19D8
:1008C00091B2321990B200F037FD7A1991B2321B11
:1008D00090B200F031FD3A1991B2721B90B200F063
:1008E0002BFD7A1B91B2321B90B200F025FD3A1B12
:1008F00091B2721B90B200F01FFD641CB9F1000FA1
:1009000003DAA000801D814404E0601B80000A30EF
:1009100081446D1EAC42C0DDBDE8F0830346062174
:1009200006221248018812480288ABB1012B1BD164
:100930003AB94EF6EE60814201D1002070470120A5
:10094000FCE739B94EF6EE60824201D10120F5E7AD
:100950000020F3E7AB20F1E709B90020EEE70AB980
:100960000120EBE7AB20E9E70020E7E70000010802
:100970000008010810B504240B4800F07BF9044678
:10098000042C01D0204610BD0021074800F0B2F928
:100990000446042C01D02046F5E7044800F06AF92B
:1009A00004462046EFE700000000010800080108A7
:1009B00010B500F001F810BD10B503F005FC0446B9
:1009C00000F052FB204610BD2DE9F84F074689463E
:1009D0000425DFF8D4A0354800904FF0000800242B
:1009E00000264FF0000B0020FFF798FF8046B8F17B
:1009F000010F04D1DFF8B4A02D4800900AE0B8F14F
:100A0000000F04D1DFF8A8A02848009002E0AB2036
:100A1000BDE8F88F4EF6EE61504600F06BF90546E2
:100A2000042D01D02846F3E700F01EFB4946384666
:100A300000F0A2F80646042E01D03046E8E7002474
:100A40001DE01C4830F81400B84216D0194931F89E
:100A50001400194900F032F88346BBF1010F0CD0A5
:100A6000154A128891B2134A32F8140000F084F843
:100A70000646042E01D03046CAE7601C84B20F2C13
:100A8000DFDB009800F0F6F80546042D01D028467B
:100A9000BEE70021504600F02DF90546042D01D097
:100AA0002846B5E72846B3E7FF0301080000010820
:100AB000000801084C0000206C0000202DE9F047E0
:100AC00006460F46002545F255584FF00109124CD5
:100AD000DFF848A00020FFF721FF0546AB2D01D12C
:100AE000BDE8F0870C4800EBC52A0D480068841E5D
:100AF0000BE0B4F80080B04506D134F8020C00B227
:100B000038804FF0000904E0241F0AF102008442FB
:100B1000EFD800BF4846E3E70000010800000308E3
:100B20007000002038B50446044931F814006946C5
:100B3000FFF7C4FFBDF9000038BD00004C000020E5
:100B400038B504460B4A611C32F811006946FFF7BC
:100B5000B5FFBDF8000085B22D04064931F8140038
:100B60006946FFF7ABFFBDF8000080B20543284699
:100B700038BD00004C0000202DE9F04104460F462E
:100B800004250026DFF86C800120FFF7C7FE06462B
:100B9000AB2E01D1BDE8F081701C174901EBC028D4
:100BA00021E0164800680068401CB8B9394613486F
:100BB000006800F09FF80546042D01D02846E9E7BB
:100BC00021460E480068801C00F094F805460B484A
:100BD0000068001D094908602846DBE707480068EF
:100BE000001D06490860054800684045D9D38020AB
:100BF000D0E70000FF070108FEFF0008700000209A
:100C000070B506460C460025A1B23046FFF7B4FF8A
:100C10000546802D04D1A1B23046FFF7D5FE05462A
:100C2000284670BD70B504460D46034931F81400DE
:100C30002946FFF7E5FF70BD4C00002070B5044663
:100C40000D46AEB20A4931F8140031B2FFF7D8FFB1
:100C50000A2003F08DFD2E0C054A611C32F81100AC
:100C600031B2FFF7CDFF0A2003F082FD70BD000016
:100C70004C00002030B5044604254FF4302000F02D
:100C800065F80546042D17D10C48006940F00200B4
:100C90000A49086108464461006940F04000086163
:100CA0004FF4302000F052F805460448006941F640
:100CB000FD71084001490861284630BD002002400E
:100CC00004200B49C96801F0010109B101200EE0BF
:100CD0000749C96801F0040109B1022007E004498D
:100CE000C96801F0100109B1032000E00420704739
:100CF0000020024070B504460D460426F00200F0C4
:100D000025F80646042E11D10948006940F001007B
:100D1000074908612580F00200F018F806460448EB
:100D2000006941F6FE71084001490861304670BD16
:100D30000020024002480349486003484860704769
:100D40002301674500200240AB89EFCD00B5024684
:100D50000423FFF7B5FF034603E0FFF7B1FF0346A7
:100D6000521E012B01D1002AF7D102B905231846E2
:100D700000BD000051B18200A2F1C042126842F0F1
:100D800001038200A2F1C042136009E08200A2F1D7
:100D9000C0421268034B1A408300A3F1C0431A609B
:100DA00070470000FEFF0F00D0E901121143C26836
:100DB0001143026911434269114382691143C269B7
:100DC0001143026A1143426A1143826A1143C26AA3
:100DD0001143026B114302689200A2F1C0421160FC
:100DE000816808290BD101688900A1F1C041096817
:100DF00041F0400201688900A1F1C0410A60416BE5
:100E00000968426B526841EA0211426B926841EAFA
:100E10000221426B928941EA0241426B128A41EA05
:100E20000251426B127D41EA0261426B92691143A9
:100E30000268521C9200A2F1C0421160C16AB1F571
:100E4000804F1BD1816B0968826B526841EA0211A5
:100E5000826B926841EA0221826B128A41EA025156
:100E6000826B127D41EA0261826B926911430268D2
:100E70009200A2F1C042C2F8041107E06FF0704284
:100E800001688900A1F1C041C1F804217047000048
:100E900030B59CB00246154C53784FF6FF7000EA0F
:100EA00003231078034300211BE04800401C205C12
:100EB0002DF811003DF811004FF6FF7505EA0020EE
:100EC0002DF811003DF8110014F8115028432DF8A9
:100ED00011003DF81100984202D1C8B21CB030BDDB
:100EE000491C3729E1DBFF20F8E70000987700086C
:100EF0002DE9F041024600250026002000230024B1
:100F0000002791F803C00CF00F0591F803C00CF016
:100F1000100CBCF1000F03D091F802C04CEA05059B
:100F200091F800C0BCF1000F31D0146800202BE014
:100F30004FF0010C0CFA00F3B1F800C00CEA030604
:100F40009E4220D183004FF00F0C0CFA03F7BC43F4
:100F500005FA03FC4CEA040491F803C0BCF1280F25
:100F600006D14FF0010C0CFA00FCC2F814C00AE0E4
:100F700091F803C0BCF1480F05D14FF0010C0CFAF9
:100F800000FCC2F810C0401C0828D1D31460B1F88E
:100F900000C0BCF1FF0F34DD546800202EE000F1EA
:100FA000080C4FF0010808FA0CF3B1F800C00CEA85
:100FB00003069E4221D183004FF00F0C0CFA03F779
:100FC000BC4305FA03FC4CEA040491F803C0BCF1ED
:100FD000280F05D100F1080C08FA0CF8C2F81480AB
:100FE00091F803C0BCF1480F07D100F1080C4FF095
:100FF000010808FA0CF8C2F81080401C0828CED36B
:101000005460BDE8F0810246002093680B400BB1AC
:10101000012000E0002070470161704710B51049C1
:1010200040F2DC5003F096FC0E4908600846006868
:1010300008B9012010BD0B480168094803F0D8FD2C
:1010400020B1074803F07CFE0120F3E70548016862
:10105000034803F0EFFD08B90120EBE70020E9E7C2
:10106000E60100209400002070B504260024012031
:10107000FFF754FC0446AB2C06D1124800EBC42009
:1010800011490860AB2070BD0E4800EBC4200E492A
:101090000860601C0B49891E01EBC0250CE00A4862
:1010A00000680068401C10B904263046EBE706488B
:1010B0000068001D0449086003480068A842EED398
:1010C0008020E0E7000001087000002008B5012141
:1010D000442001F039FB1C20ADF8000048208DF8B9
:1010E000030069460648FFF703FF0120ADF8000042
:1010F00028208DF8030069460248FFF7F9FE08BD75
:10110000001801400008014010B5044614B1012048
:101110002C4908702B480078002837D010212A4825
:10112000FFF771FF78B108212748FFF76CFF50B136
:1011300004212548FFF767FF28B101212348FFF765
:1011400062FF012822D10A2003F012FB00201D4972
:10115000087010211C48FFF756FF08B9012010BD88
:1011600008211948FFF74FFF08B90220F7E70421CB
:101170001548FFF748FF08B90320F0E7012113489D
:10118000FFF741FF01281BD10420E8E710210E489A
:10119000FFF739FF012813D108210B48FFF733FF70
:1011A00001280DD104210848FFF72DFF012807D1A0
:1011B00001210648FFF727FF10B9012001490870F7
:1011C0000020CCE774000020001801400008014016
:1011D00070B50446002617480588408845431548E1
:1011E000808846F60401884216D112488079012889
:1011F00012D100200F4988712A2048812B20888134
:101200000021084600F0B8FC01200A4988712B2013
:1012100048812A20888103E00021084600F0ACFCC8
:1012200001F006FA002602E003480480761CAE4274
:10123000FAD370BDD80100200008006C10B5044638
:1012400074B900200F498871F02008804FF4A07015
:1012500048802220088120204881212088810DE0BB
:101260000120084988714FF4A0700880F020488060
:10127000222008812120488120208881002000F040
:101280002FFC10BDD80100202DE9FF4F84B081460E
:101290008A460020039002900698A0EB0905079863
:1012A000A0EB0A06CDF80490CDF800A0002D01DDDA
:1012B000012705E00DB9002702E04FF0FF376D422E
:1012C000002E02DD4FF0010806E016B94FF00008CD
:1012D00002E04FF0FF387642B54201DD2C4600E0D7
:1012E00034464FF0000B21E0009A91B2019A90B27F
:1012F00000F022F8039828440390029830440290AA
:101300000398A04205DD0398001B03900198384420
:1013100001900298A04205DD0298001B02900098FF
:10132000404400900BF101001FFA80FB601C8345D4
:10133000DADD08B0BDE8F08F30B504460D46294629
:10134000204600F019FC01F073F9024800880249B8
:10135000088030BD0A0000200008006C2DE9FC4F19
:1013600005460E4617469846DDF82C900020019061
:101370002748808846F60401884229D1244880798C
:10138000012825D1AB46354621480088C01B401EA8
:1013900086B247461E480088A0EB0B00401E1FFA8D
:1013A00080F800201A4988712A2048812B208881E2
:1013B00043463A4631462846CDF80090FFF7CEFF27
:1013C0000120134988712B2048812A2088811CE044
:1013D000781B401C80B20190344614E02146284618
:1013E00000F0CAFB01F024F94FF0000A06E048467D
:1013F00001F012F90AF101001FFA80FA0198824502
:10140000F5DB601C84B24445E8DDBDE8FC8F0000DC
:10141000D8010020F8B505460E46FF24B5484168BE
:1014200000208847B34890F8200000F08000002892
:101430007ED0B0488089B0490988884278DAAD48C2
:10144000C08AAD4949888842F8DAAA484168002034
:101450008847642003F08CF9A64890F8200000F03B
:1014600080000028E4D0A3488089A34909888842E5
:10147000E4DAA048C08AA04949888842DEDA9D485B
:1014800080890F2805DB9B488089552801DA0124D3
:1014900012E098488089552805DB964880899B286A
:1014A00001DA022408E0934880899B2804DB9148F4
:1014B0008089E12800DC03248E48C08A642806DB8A
:1014C0008C48C08A962802DA44F0100420E089484B
:1014D000C08A962806DB8748C08AC82802DA44F00A
:1014E000200415E08348C08AC82806DB8148C08AEA
:1014F000FA2802DA44F030040AE07E48C08AFA286A
:1015000006DB7C48C08AB0F5967F01DC44F04004DD
:1015100001207A490870312C41D00FDC212C2CD0CD
:1015200007DC112C17D0122C1BD0132C5BD11EE022
:1015300079E0222C27D0232C55D12AE0412C40D011
:1015400004DC322C31D0332C4DD134E0422C3ED04F
:10155000432C48D141E0312069496A4A12788854C5
:1015600047E032206649674A1278885441E03321C7
:101570006348644A127881543BE034206049614AF0
:101580001278885435E035215D485E4A12788154DE
:101590002FE036205A495B4A1278885429E03721D7
:1015A0005748584A1278815423E038205449554A04
:1015B000127888541DE039205149524A12788854D3
:1015C00017E020204E494F4A1278885411E030200D
:1015D0004B494C4A127888540BE04F204849494AFD
:1015E0001278885405E000214548464A1278815413
:1015F00000BF00BF434800780A2813D14048414942
:101600000978405C20280DD03D483E490978405C6F
:101610004F2807D000203A493A4A127888540920C6
:1016200038490870FF2435480078B8B300203349A2
:101630000870334833490978405C20282FD030485F
:1016400030490978405C50B32D482E490978405CF8
:101650004F280FD100202B49087000BF06E0284911
:10166000095C29540021264A1154401C0A28F6DB43
:101670000120F8BD00202249224B00901B78CA5C53
:10168000204909785F2303EBC1001023432100F0B8
:10169000F9FA1C480078401C1A49087028E01848DC
:1016A00018490978405C18B31648007800281FDDF7
:1016B00000201349134A12788854002111480078F9
:1016C000401EC0B20F4A10700D4A11544FF6FF7001
:1016D0000C49009009785F2303EBC10101F1080276
:1016E0000849097803EBC10053234321FFF736FE75
:1016F0000020BEE710000020D8010020C500002017
:10170000C3070020C600002000B59FB001210802D9
:1017100000F0FAFF012140F2691001F015F80120F4
:10172000ADF8780010208DF87B0003208DF87A004A
:101730001EA9C548FFF7DCFB4CF23370ADF878000A
:1017400018208DF87B0003208DF87A001EA9BF4871
:10175000FFF7CEFB4FF68070ADF8780018208DF8BB
:101760007B0003208DF87A001EA9B948FFF7C0FB63
:1017700041F20100ADF8780018208DF87B000320BD
:101780008DF87A001EA9B348FFF7B2FB012008903C
:10179000002009900F200A9000200B900C900D90D3
:1017A0000E90019002900320039000200490059079
:1017B0000690079006200F900020109011901020A6
:1017C00012900020139015901490169017904FF4DB
:1017D00080501890002019904FF480401A900020FB
:1017E0001B9008A81C9001A81D900FA8FFF7DCFA19
:1017F00001210620FFF7BEFA322002F0B9FF0121D5
:10180000002000F01FFF322002F0B2FF002000F0A5
:101810005BF9914988800846818890A002F0C4FC59
:101820008D48808849F2283188427DD141F28F016C
:10183000EC2000F007FF41F23421EF2000F002FF1E
:101840004FF48071012000F0FDFE4FF4E0610220B2
:1018500000F0F8FE41F23001032000F0F3FE002119
:10186000042000F0EFFE40F20221082000F0EAFE22
:101870000021092000F0E6FE00210A2000F0E2FE2F
:1018800001210C2000F0DEFE00210D2000F0DAFE28
:1018900000210F2000F0D6FE0021102000F0D2FE23
:1018A0000721112000F0CEFE0021122000F0CAFE18
:1018B0000021132000F0C6FE0121072000F0C2FE27
:1018C000322002F055FF41F29041102000F0BAFEA4
:1018D00040F22721112000F0B5FE322002F048FF2F
:1018E0008A21122000F0AEFE322002F041FF4FF4B8
:1018F000D051132000F0A6FE0621292000F0A2FE00
:101900000D212B2000F09EFE322002F031FF00213D
:10191000202000F097FE0021212000F093FE3220CD
:1019200002F026FF002100E074E0302000F08AFE83
:1019300040F20461312000F085FE40F20531322092
:1019400000F080FE0021352000F07CFE40F60941C9
:10195000362000F077FE4FF40171372000F072FE60
:1019600040F20131382000F06DFE40F2077139205D
:1019700000F068FE00213C2000F064FE40F60A21E1
:101980003D2000F05FFE322002F0F2FE00215020E8
:1019900000F058FEEF21512000F054FE00215220AB
:1019A00000F050FE40F23F11532000F04BFE4FF488
:1019B0002741602000F046FE0121612000F042FE38
:1019C00000216A2000F03EFE0021802000F03AFE57
:1019D0000021812000F036FE0021822000F032FE3E
:1019E0000021832000F02EFE0021842000F02AFE3A
:1019F0000021852000F026FE1021902000F022FE1C
:101A00004FF4C061922000F01DFE40F23311072018
:101A100000F018FE0020FFF711FC002013490860B9
:101A20004FF6FF70FFF7D4FB11A002F0BDFB0A4890
:101A3000418814A002F0B8FB0748018815A002F005
:101A4000B3FB1FB000BD0000000C014000140140BA
:101A50000018014000200140D8010020204C4344E0
:101A60002049443A25780D0A000000008081214277
:101A70004C434420496E69742053756363657373E6
:101A80000A00000048696768742069732025640AA9
:101A90000000000057696474682069732025640A97
:101AA0000000000010B50246012000E050430B1E6C
:101AB000A1F10104E1B2F9D110BD00000148008894
:101AC000704700000008006C10B50446204600F086
:101AD000A9FD052002F072FEFFF7F0FF10BD000027
:101AE00030B504460023002522488079012818D10A
:101AF000082C15D2DFE804F00406080A0C0E1012B8
:101B000006240DE007240BE0042409E0052407E087
:101B1000012405E0002403E0032401E0022400BFC7
:101B200000BF082C1CD2DFE804F004070A0D0F12D6
:101B3000151843F0300313E043F0100310E043F0B6
:101B400020030DE000BF0BE043F0380308E043F052
:101B5000280305E043F0180302E043F0080300BF48
:101B600000BF032543F480531946284600F06AFD60
:101B700030BD0000D801002010B503460C46404897
:101B8000808849F24131884205D03D48808845F23D
:101B90001031884214D13A49488900F043FD1812A7
:101BA00000F03AFDD8B200F037FD3549888900F0E1
:101BB00039FD201200F030FDE0B200F02DFD5DE0B7
:101BC0002F48808846F6040188421DD12C48807930
:101BD000012804D12A480088401EC01A83B228492F
:101BE000488900F01FFD181200F016FDD8B200F071
:101BF00013FD2349888900F015FD201200F00CFD2B
:101C0000E0B200F009FD39E01D48808845F210512E
:101C1000884220D11A49488900F004FD181200F0CA
:101C2000FBFC17494989491C88B200F0FBFCD8B27B
:101C300000F0F2FC1249888900F0F4FC201200F058
:101C4000EBFC0F498989491C88B200F0EBFCE0B23B
:101C500000F0E2FC12E00A488079012804D108482B
:101C60000088401EC01A83B205494889194600F011
:101C7000E9FC03498889214600F0E4FC10BD00001E
:101C8000D80100202DE9F84F05460F4690461E4624
:101C900000975148B0F80090A8F1200000F0FF082C
:101CA0000A9800284ED1002449E00C2E07D108EBF9
:101CB00048004A4901EB800010F804A004E04848BD
:101CC00000EB081010F804A04FF0000B31E00AF010
:101CD000800018B14048A0F8009003E04148008817
:101CE0003D49088039462846FFF726FB4FEA4A60FF
:101CF0004FEA106A781C87B23B480088A84204DC8F
:101D00003548A0F80090BDE8F88F0098381AB04226
:101D10000BD1009F681C85B233480088A84203DCC1
:101D20002D48A0F80090EEE706E00BF1010000F06E
:101D3000FF0BBBF1080FCADB00BF601CC4B2B4428A
:101D4000B3DB44E0002440E00C2E07D108EB480050
:101D5000224901EB800010F804A004E0204800EBC9
:101D6000081010F804A04FF0000B28E00AF08000E3
:101D700018B139462846FFF7DFFA4FEA4A604FEAC2
:101D8000106A781C87B218484088A84203DC1248C1
:101D9000A0F80090B7E70098381AB0420BD1009F26
:101DA000681C85B210480088A84203DC0A48A0F8E5
:101DB0000090A8E706E00BF1010000F0FF0BBBF17B
:101DC000080FD3DB00BF601CC4B2B442BCDB0248C6
:101DD000A0F8009000BF96E70A000020AC4F000872
:101DE000205400080C000020D80100202DE9FF4FEE
:101DF00083B005460E461F462948008800904FF0E4
:101E00000009019645E007EB0900FFF741F880461D
:101E1000002431E0019E4FF0000A29E008EBC800E1
:101E2000204901EBC00004EB44015144405C0290A6
:101E30004FF0000B17E0029800F0010018B11849AC
:101E40000098088003E0184800881549088029197F
:101E500088B23146FFF770FA029840100290701C69
:101E600086B20BF1010BBBF1080FE4DB0AF1010AAA
:101E7000BAF1030FD2DB641C182CCBDB09F1020092
:101E800000F0FF0905981830284485B204490098ED
:101E9000088017F809000028B5D107B0BDE8F08F19
:101EA0000A000020105A00080C0000202DE9FF4F06
:101EB00081B0074691461E460E9D4FF0000A002451
:101EC00039E0301B401EC1B20A20FFF7EBFDB9FB21
:101ED000F0F00A21B0FBF1F201FB1208BAF1000F99
:101EE00016D1701EA04213DDB8F1000F0ED10020F4
:101EF000AB4605EBDB71491001FB0471009088B221
:101F00002B4620220299FFF7BDFE12E04FF0010A96
:101F10000020AB4605EBDB71491001FB047100901A
:101F200088B208F13001CAB22B460299FFF7AAFE27
:101F300000BF601CC4B2B442C3DB05B0BDE8F08F83
:101F40002DE9F04F85B081460E4692461C462E483C
:101F500000880290002001902046E21704EB5272A4
:101F6000D2102146E31704EB5373DB10A4EBC30339
:101F70000BB1012300E000231A4495B2F0B20390A4
:101F8000002739E0039E4FF0000832E00198411C21
:101F900089B201910E99085C049008200090681E97
:101FA000404505D1C4EBC500C0F10800C0B20090A7
:101FB0004FF0000B18E0049800F0010018B112492E
:101FC0000298088003E0114800880F49088009EB57
:101FD000070188B23146FFF7AFF90498401004902A
:101FE000701C86B20BF1010B00988345E3DB08F10E
:101FF0000108A845CADB7F1C5745C3DB024902988C
:10200000088005B0BDE8F08F0A0000200C00002019
:102010002DE9F84704460D4690469946DDE90967E3
:1020200004F0FF0A08EB04001FFA80F809EB050032
:102030001FFA80F916E0444502DB5446A81985B220
:102040004D4500DB14E0002000903A7833462946E5
:102050002046FFF717FE304606EBD07104EB610116
:102060008CB27F1C38787E2802DC38782028E2DAAF
:1020700000BFBDE8F887000010B51F200C4908809C
:102080004FF6FF70FFF7A4F800F018FF01F022FDF3
:1020900001F076FB0748006820F00200054908605F
:1020A0000846006820F00100401C086010BD0000D8
:1020B0000A000020B0000020F8B506461F20414964
:1020C0000880002413E004EBC40000EB041032226B
:1020D00002EB400083B204EBC40000EB041002EBFF
:1020E000400081B2E1220F20FFF7CEF8641C062CDD
:1020F000E9DB64230F2232211046FFF7C5F8642381
:10210000E12232211046FFF7BFF8002414E0C4EBAF
:10211000C40101EB81010F2303EB41018AB2C4EB3F
:10212000C40101EB810103EB410188B24FF49673C6
:102130006421FFF7A9F8641C042CE8DB00241EE0EE
:10214000002519E0002004EB440330332B445B1CD2
:10215000DAB2322704FB07F3753399B2C5EBC50336
:1021600003EB83030F2707EB43031F33009098B261
:102170001023FFF787FD6D1C032DE3DB641C032C8C
:10218000DEDB00201023302240F20B11009074207F
:10219000FFF778FD0CA3002240F207111A20FFF789
:1021A00025FE0BA3002240F20711A620FFF71EFE1A
:1021B0001F2004490880334600223F211A20FFF7E0
:1021C00015FEF8BD0A000020C9BEB3FD00000000E6
:1021D000C8B7C8CF0000000038B52D480078B0B1AE
:1021E000642002F0C5FA4FF6FF70FEF7F1FF4FF4DE
:1021F00078402849088028A3032214215120FFF7A2
:10220000F5FD27A0FFF758FF0020214908700A219B
:102210002548FFF7FFF8002838D000241AE02348AB
:10222000005D2149095D884213D021A300223F218E
:102230005F20FFF7DBFD4FF47A7002F099FA4FF65A
:10224000FF705B23C7223F2100905F20FFF786F8D5
:1022500004E0641C1548005D0028E0D100BF13486D
:10226000005D90B91048005D4F280ED113480068FA
:1022700020F00800114908600846006820F020009E
:102280002030086001200249087000BF38BD0000FE
:10229000C70000200A000020C7EBB5C7C2BC000081
:1022A000C3DCC2EB00000000CE070020B400002019
:1022B000C3DCC2EBB4EDCEF300000000B0000020A0
:1022C00038B55E480078002855D01F205C4908804A
:1022D0004FF6FF70FEF77CFF5A484623F02201219B
:1022E00000900846FFF72CFE57490988A1F16104C8
:1022F00004EBD471C1F34F0054A301225021FFF726
:1023000075FD51490988A1F1D80404EBD471C1F3DA
:102310004F0051A300226E21FFF768FD4A4909884A
:10232000A1F1D80404EBD471C1F34F004FA30022F4
:102330008621FFF75BFD4FF4784041490880424910
:102340000988A1F1600404EBD471C1F34F004CA3E0
:102350000322C821FFF74AFD0020394908803A4985
:102360000988603988B249A30322FA21FFF73EFDAC
:102370000020324908704748416800208847002003
:10238000FEF7C2FE01280ED14348006820F002008B
:10239000801C414908600846006820F00100086080
:1023A0000120264908703B4890F8200000F080008A
:1023B00078B3384880892449098888423CDA35480E
:1023C000C08A21494988884236DA1F4A1288A2F118
:1023D000600101EBD17252102E4B9B899A422BDA8D
:1023E000194A1288A2F1600000EBD07252106032DC
:1023F000284B9B899A421FDD264AD28AC82A01DDD2
:10240000012200E00022234BDB8AE02B02DA0123C9
:1024100001E011E000231A4072B11F48006820F06B
:1024200001001D4908600846006820F008000830D7
:10243000086001200149087038BD0000C400002078
:102440000A00002088690008D8010020B1CFD2B569
:10245000C9E8BCC600000000BBF9D3DAD2D4CCABCB
:10246000CDF8B5C4D6C7C4DCBDBB0000CDA8CFB580
:10247000CDB3BFD8D6C6CDF8C2E7C9E8BCC6000008
:10248000B5E3BBF7BDF8C8EB00000000CDF5C6E42E
:10249000B3AF000010000020B000002038B5534852
:1024A000007800284AD04FF6FF70FEF791FE4FF4F7
:1024B00078404F4908804FA3032214214320FFF79F
:1024C00095FC002435E01F2049490880462204FB82
:1024D00002F03C3081B24AA300220A20FFF786FCBA
:1024E0000020009004F14100C2B2462304FB03F037
:1024F000403081B210233C20FFF7C4FB0020009045
:1025000004F14300C2B2462304FB03F0403081B221
:1025100010234420FFF7B6FB00204622009004FB66
:1025200002F0403081B210233A224C20FFF7AAFB80
:10253000641C022CC7DB00202C490870324800883C
:10254000C0F3C02090B13048006820F400602E49EC
:10255000086000212D48B0F9000001F019FD0121AB
:102560002A480088404200B201F012FD00202049B4
:102570000880C823E12219460F20FEF785FE4FF49C
:102580009673E12219460F20FEF77EFE4FF49673F4
:102590000F22C8211046FEF777FE4FF4967387226C
:1025A000C8211046FEF770FE4FF496732D22C82105
:1025B0001046FEF769FE4FF49673E122C8211046DB
:1025C000FEF762FEE623E12219462D20FEF75CFEAF
:1025D0000FA30022DC211320FFF708FC0DA300222B
:1025E0004FF480711320FFF701FC38BDC9000020B3
:1025F0000A000020B5B1C7B0D7B4CCAC00000000D1
:10260000C2B7BFDA00000000B0000020BE0000200A
:10261000C9E80000D6C300000149088070470000E7
:102620000008006C0149088070470000FE07006C3C
:10263000024800890249088070470000D801002044
:10264000FE07006C024A1080921C11807047000047
:10265000FE07006C70B5002100230F22C47804B37C
:10266000154C246804F4E064C4F5E064210AC1F167
:102670000403CA40447804FA03F1847814402143E7
:1026800009010E4C0678A155047804F01F050124B9
:10269000AC4005786D11AD0005F1E025C5F80041AD
:1026A00009E0047804F01F050124AC40044D0678CD
:1026B000761145F8264070BD0CED00E000E400E026
:1026C00080E100E002490143024A116070470000C6
:1026D0000000FA050CED00E010B50948C07D0128A6
:1026E0000BD1074890F82200082806D10548016858
:1026F000034802F057FB012010BD0020FCE700005A
:10270000E60100209400002029B1064A52690243E4
:10271000044B5A6104E0034A52698243014B5A61F7
:10272000704700000010024029B1064AD2690243F6
:10273000044BDA6104E0034AD2698243014BDA6157
:10274000704700000010024029B1064A9269024316
:10275000044B9A6104E0034A92698243014B9A61F7
:10276000704700000010024030B500210022002414
:1027700000232D4D6D6805F00C0121B1042905D011
:10278000082923D105E0294D056022E0274D056089
:102790001FE0254D6D6805F47012234D6D6805F43A
:1027A0008034022505EB92421CB9214D554305604A
:1027B0000BE01D4D6D6805F400351DB11C4D5543F2
:1027C000056002E0194D5543056002E0174D0560B4
:1027D00000BF00BF144D6D6805F0F0010909154DEB
:1027E0006B5C0568DD4045600F4D6D6805F4E06188
:1027F000090A104D6B5C4568DD4085600A4D6D68C7
:1028000005F46051C90A0B4D6B5C4568DD40C5603D
:10281000054D6D6805F44041890B074D6B5CC5683B
:10282000B5FBF3F5056130BD0010024000127A00DF
:1028300000093D00E0000020F000002010B5044633
:1028400000BF02210A4800F06FF80028F9D02146A5
:10285000074800F075F800BF0121054800F064F852
:102860000028F9D0024800F068F8C0B210BD00009E
:102870000030014021B1028842F04002028004E0B1
:1028800002884FF6BF731A400280704700B587B0C8
:10289000012141F20400FFF757FFE020ADF81800D6
:1028A00001208DF81A0018208DF81B0006A91C487D
:1028B000FEF71EFB1020ADF8180001208DF81A005D
:1028C00010208DF81B0006A91548FEF711FB1021FA
:1028D0001348FEF7A1FB0020ADF804004FF482700E
:1028E000ADF806000020ADF80800ADF80A00ADF81C
:1028F0000C004FF40070ADF80E001020ADF8100081
:102900000020ADF812000720ADF8140001A9054819
:1029100000F018F801210348FFF7ACFF07B000BD35
:1029200000080140003001400246002013890B409E
:102930000BB1012000E000207047014688897047F4
:102940008181704710B50022028802F441520B8841
:102950004C8823438C882343CC8823430C8923430E
:102960004C8923438C892343CC8923431A43028017
:10297000838B4FF2FF74234083830B8A038210BD45
:1029800010B52A2408E00648015D06A001F00CFC01
:10299000012001F0EDFE641C352CF4DB10BD0000BD
:1029A000E60100202563000010B500F001F810BD1D
:1029B0000CB50020019000903348006840F480304E
:1029C0003149086000BF3048006800F400300090D2
:1029D0000198401C0190009818B90198B0F5A06FBB
:1029E000F1D12948006800F4003010B101200090B6
:1029F00001E0002000900098012843D1234800689E
:102A000040F01000214908600846006820F00300EB
:102A100008600846006840F0020008601A484068F4
:102A2000194948600846406848600846406840F4D4
:102A3000806048600846406820F47C104860084682
:102A4000406840F4E81048600846006840F0807034
:102A5000086000BF0C48006800F000700028F9D042
:102A60000948406820F0030007494860084640686C
:102A700040F00200486000BF0348406800F00C00CE
:102A80000828F9D10CBD00000010024000200240CF
:102A9000042808D14FF0E021096941F004014FF00A
:102AA000E022116107E04FF0E021096921F0040103
:102AB0004FF0E0221161704710B51348006840F0F4
:102AC00001001149086008464068104908400E4955
:102AD0004860084600680E4908400B4908600846EF
:102AE000006820F4802008600846406820F4FE005A
:102AF00048604FF41F008860FFF756FF4FF00060FA
:102B00000449086010BD0000001002400000FFF8FA
:102B1000FFFFF6FE08ED00E010B52C480068401CF1
:102B20002A490860084600684FF4FA7190FBF1F2F8
:102B300001FB120038B92648006820F4806000F5D7
:102B4000806023490860214800684FF47A7190FB47
:102B5000F1F201FB120038BB1D48006820F4006050
:102B600000F500601A4908601A48B0F90000002812
:102B70000EDD18480088401E00B21649088008463D
:102B8000008888B914484088404200B208800BE0B1
:102B900010480088401C00B20E4908800846008892
:102BA00010B90D480088088001210C4800F048F851
:102BB000FEF734FA00B108E0FFF78EFD00B104E043
:102BC00001F06CF800B100E000BF10BD78000020FB
:102BD000B0000020BE000020C00000200004004023
:102BE0001FB501210220FFF79FFD4720ADF804002B
:102BF0000020ADF8060040F2E730ADF808000020F4
:102C0000ADF80A0001A90D4800F032F80122114682
:102C10000A4800F024F81D208DF8000002208DF8ED
:102C2000010001208DF802008DF803006846FFF7CF
:102C300011FD0121014800F006F81FBD000400400D
:102C4000CA430282704721B1028842F00102028029
:102C500004E002884FF6FE731A40028070471AB1F2
:102C600083890B43838102E083898B43838170478F
:102C7000002202881D4B98420ED01D4B98420BD06B
:102C8000B0F1804F08D01B4B984205D01A4B9842A8
:102C900002D01A4B984204D14FF68F731A404B88DA
:102CA0001A43174B984207D0164B984204D04FF660
:102CB000FF431A40CB881A4302808B8883850B8898
:102CC00003850A4B98420BD0094B984208D00E4B13
:102CD000984205D00D4B984202D00D4B984201D13D
:102CE0000B7A03860123838270470000002C014089
:102CF000003401400004004000080040000C004087
:102D00000010004000140040004001400044014019
:102D1000004801402DE9FC5F04460D4617461E465B
:102D2000DDE90EABDDE90C894FF4784057490880A6
:102D300057A01021CDE90010564843880288A021F1
:102D40002820FFF765F954A01021CDE90010514863
:102D500043880288A0217820FFF75AF94FA010215C
:102D6000CDE900104B4843880288B4212820FFF7A2
:102D70004FF94BA01021CDE9001046484388028846
:102D8000B4217820FFF744F946A01021CDE90010C6
:102D9000404843880288C8212820FFF739F942A01B
:102DA0001021CDE900103B4843880288C8217820D3
:102DB000FFF72EF93DA01021CDE9001035484388DA
:102DC0000288DC212820FFF723F939A01021CDE962
:102DD0000010304843880288DC217820FFF718F97A
:102DE00034A01021CDE900102A4843880288F02140
:102DF0002820FFF70DF9102004232246A02100907F
:102E00004020FFF753F8102004232A46A021009009
:102E10009020FFF74BF8102004233A46B42100908D
:102E20004020FFF743F8102004233246B4210090DD
:102E30009020FFF73BF8102004234246C821009061
:102E40004020FFF733F8102004234A46C8210090A1
:102E50009020FFF72BF8102004235246DC2100902D
:102E60004020FFF723F8102004235A46DC2100906D
:102E70009020FFF71BF810200090064801880323DC
:102E80006020109AFFF712F8BDE8FC9F0A000020AE
:102E900078313A00D801002079313A0078323A008E
:102EA00079323A0078333A0079333A0078343A008C
:102EB00079343A006661632069733A0000B595B0D1
:102EC000002010900A9010901F20FE4908804FF6B5
:102ED000FF70FD490880FEF77BF94FF47840F9490F
:102EE00008804FF6FF70FEF773F90020F54908805F
:102EF000F648006810216423A022CDE900102821A3
:102F00000846FFF785F84FF478421421084600F090
:102F1000FFFB0020EE4981F820004862CBE3EC483B
:102F200040680990012009998847E94890F82000F5
:102F300000F0C00040286FD100200A90E44890F8CB
:102F4000200020F04000E24981F8200008468189F5
:102F500011AA109822F82010DD48C18A109802EBBF
:102F6000800041801098401CC0B210901098012839
:102F700006D0022815D0032829D0042810D141E01A
:102F80004FF6FF721421084600F0C2FBD1480088BA
:102F9000143880B24FF478421421099000F0B8FB45
:102FA00079E3CC480088143880B24FF6FF721421C0
:102FB000099000F0ADFBC7484088143880B24FF448
:102FC000784201460990142000F0A2FB63E3C14857
:102FD0004088143880B24FF6FF72014609901420E1
:102FE00000F096FBBB484088143880B20990B9487D
:102FF0000088143880B24FF478420890099900F0A4
:1030000087FB48E3BDF84400BDF84810401A09901A
:10301000002802DB099802E03EE3099840420D9047
:10302000BDF8461011A8C088081A0990002801DBD5
:10303000099801E0099840420C900D9840430D908A
:103040000C9840430C90DDE90C1008440590FDF706
:10305000FBF9CDE9060101F033FFCDE90801FDF7E9
:103060002DFA80B20F90BDF84C00BDF85010401AF8
:103070000990002801DB099801E0099840420D9071
:1030800011A84189C089081A0990002801DB099814
:1030900001E0099840420C900D9840430D900C9827
:1030A00040430C90DDE90C1008440590FDF7CCF985
:1030B000CDE9060101F004FFCDE90801FDF7FEF9B5
:1030C00080B20E900E98FDF7A9F909900F98FDF7C0
:1030D000A5F908900999FDF7EBF80B900B98FDF70F
:1030E00006FA4FF066327C4BCDE90801FDF712FA83
:1030F0000DD30B98FDF7FBF9784A794BCDE9080120
:10310000FDF720FA03D30F9808B10E98E8BB002012
:10311000109070484088143880B209906D4800883B
:10312000143880B24FF6FF720890099900F0F0FA57
:103130004FF478421421084600F0EAFA69490B98E6
:10314000FDF784F80890FDF7A5F980B211A9099060
:10315000C989BDF8502011AB5B89CDE90132CDE9B9
:103160000310BDF84C00009011A8C0880890BDF86D
:1031700048000790BDF846000690BDF84400059051
:1031800006A90EC9FFF7C6FD95E2FFE7BDF84400AA
:10319000BDF84C10401A0990002801DB099801E0A5
:1031A000099840420D90BDF8461011A84089081AB0
:1031B0000990002801DB099801E0099840420C9031
:1031C0000D9840430D900C9840430C90DDE90C1095
:1031D00008440590FDF738F9CDE9060101F070FECD
:1031E000CDE90801FDF76AF980B20F90BDF84800FB
:1031F000BDF85010401A0990002801DB099801E041
:10320000099840420D9011A8C188C089081A0990F8
:10321000002801DB099801E0099840420C900D98C4
:1032200040430D900C9840430C90DDE90C1008448D
:103230000590FDF709F9CDE9060101F041FECDE960
:103240000801FDF73BF980B20E900E98FDF7E6F805
:1032500009900F98FDF7E2F808900999FDF728F812
:103260000B900B98FDF743F94FF066321A4BCDE9FE
:103270000801FDF74FF909D30B98FDF738F9174A04
:10328000174BCDE90801FDF75DF950D200201090F1
:1032900010484088143880B209900E4800881438CD
:1032A00080B24FF6FF720890099900F031FA4FF49E
:1032B00078421421084600F02BFA0A490B98FCF7D3
:1032C000C5FF11E00A0000200C000020480000208B
:1032D00010000020D80100206666EE3FCDCCCCCC9B
:1032E000CCCCF03F0000C8420890FDF7D3F880B284
:1032F00011A90990C989BDF8502011AB5B89CDE9AE
:103300000132CDE90310BDF84C00009011A8C0882F
:103310000890BDF848000790BDF846000690BDF83B
:103320004400059006A90EC9FFF7F4FCC3E1BDF8FF
:103330004800BDF84C10401A0990002801DB09989C
:1033400001E0099840420D9011A8C1884089081AEF
:103350000990002801DB099801E0099840420C908F
:103360000D9840430D900C9840430C90DDE90C10F3
:1033700008440590FDF768F8CDE9060101F0A0FDCD
:10338000CDE90801FDF79AF880B20F90BDF844002E
:10339000BDF85010401A0990002801DB099801E09F
:1033A000099840420D90BDF8461011A8C089081A2E
:1033B0000990002801DB099801E0099840420C902F
:1033C0000D9840430D900C9840430C90DDE90C1093
:1033D00008440590FDF738F8CDE9060101F070FDCD
:1033E000CDE90801FDF76AF880B20E900E98FDF75E
:1033F00015F809900F98FDF711F808900999FCF756
:1034000057FF0B900B98FDF772F84FF06632AC4BFC
:10341000CDE90801FDF77EF809D30B98FDF767F8B1
:10342000A84AA94BCDE90801FDF78CF83DD2002050
:103430001090A6484088143880B20990A3480088AC
:10344000143880B24FF6FF720890099900F060F9C5
:103450004FF478421421084600F05AF99C490B9821
:10346000FCF7F4FE0890FDF715F880B211A9099059
:10347000C989BDF8502011AB5B89CDE90132CDE996
:103480000310BDF84C00009011A8C0880890BDF84A
:1034900048000790BDF846000690BDF8440005902E
:1034A00006A90EC9FFF736FC05E1BDF84800BDF8D6
:1034B0004410401A0790FCF7A8FF09908348008841
:1034C00028380790FCF7A1FF08900999FCF7F0FE57
:1034D00080494862BDF84800BDF844100844049093
:1034E000FCF793FF05907B48406A014604900598DD
:1034F000FCF7ACFE0790754800880590FCF78EFF3E
:1035000006900799FCF79CFE4FF080410890FCF76D
:10351000CFFE0990FCF7A5FF00B26E49888511A87F
:103520004089BDF84610401A0790FCF76EFF0990DD
:103530006648408828380790FCF767FF089009998B
:10354000FCF7B6FE6349886211A84089BDF84610B1
:1035500008440490FCF759FF05905E48806A0146D4
:1035600004900598FCF772FE079058484088059033
:10357000FCF754FF06900799FCF762FE4FF080417C
:103580000890FCF795FE0990FCF76BFF00B25149DB
:10359000C8850846406A0790FCF763FF089000283A
:1035A00001DB089801E00898404202280DDC4948F8
:1035B000806A0790FCF755FF0990002801DB099805
:1035C00001E009984042022842DD002010903F4867
:1035D0004088143880B209903C480088143880B282
:1035E0004FF6FF720890099900F092F84FF4784274
:1035F0001421084600F08CF837A01021CDE9001006
:1036000032484088099031480088089002461A21C3
:103610002820099BFEF7FCFC2E4890F8300008B9E2
:10362000012000E000202B4981F83000084690F886
:10363000300030B190202D490870D0202C490870FE
:1036400005E0D0202949087090202949087032E00F
:103650001F20284908804FF6FF70FDF7B9FD26A00E
:103660001021CDE9001019484088099017480088BA
:10367000089002466E212320099BFEF7C9FC4FF4F7
:103680007A7001F075F800F025FA4FF6FF70FDF73B
:103690009FFD15B000BD00BF0A2001F069F80A982F
:1036A000401C80B20A900A98B0F57A7F02DD00F0E3
:1036B00067F801E000BF32E400BF00BFE9E70000A7
:1036C0006666EE3FCDCCCCCCCCCCF03FD801002010
:1036D0000000C842100000205450204E6565642050
:1036E000726561646A7573742100000044000020F3
:1036F000450000200A000020546F75636820536362
:103700007265656E2041646A757374204F4B2100A9
:1037100070B504460D4616461848068004F10D01A2
:103720008AB2193988B22B462946FDF7ADFD05F15D
:103730000D0083B2193881B222462046FDF7A4FD60
:103740006A1C91B2621C90B2FDF7F6FD6A1C91B240
:10375000621E90B2FDF7F0FD6A1E91B2621C90B23B
:10376000FDF7EAFD6A1E91B2621E90B2FDF7E4FD1C
:10377000062229462046FDF785F870BD0A00002084
:103780002DE9F0410920FDF7CDF904460A2C47D177
:103790000020FDF7D5F904462046FCF744FE054617
:1037A0000022204BFCF7C2FD0746FCF7E3FE1E4952
:1037B00048620220FDF7C4F904462046FCF733FEB8
:1037C00005460022174BFCF7B1FD0746FCF7D2FE79
:1037D000154988620420FDF7B3F900B212498885C3
:1037E0000620FDF7ADF900B20F49C8850820FDF7A6
:1037F00099F90D4981F83000084690F8300030B151
:1038000090200A490870D0200949087005E0D020AE
:10381000064908709020064908700120BDE8F08133
:103820000020FBE7D012634110000020440000207C
:103830004500002008B501218820FEF785FF0620FD
:10384000ADF8000010208DF8030003208DF8020071
:1038500069461C48FDF74CFB06211A48FDF7DCFBC6
:103860004FF40070ADF8000069461748FDF740FBC3
:103870004FF400711448FDF7CFFB4FF4A060ADF892
:10388000000048208DF8030069460F48FDF730FB23
:103890000E49A1F10A0000F0A5F8FFF771FF08B189
:1038A000002008BD0AA000F07FFC4FF6FF70FDF776
:1038B0008FFCFFF703FB00F00DF9FFF761FF01201C
:1038C000EFE70000000C0140001C01402600002032
:1038D000646F6E27742061646A7573740A00000057
:1038E00070B506460025002400201C4908601C49CC
:1038F000C1F8A4011949091D0860304600F0ACF96F
:10390000062000F05BFF00201649C1F88401012069
:1039100000F054FF01201149086000201149C1F84E
:10392000840100BF11E04FF6FF7000EA440400205C
:103930000A49086001200B49C1F884010A4800685F
:1039400008B1601C84B2681CC5B2102DEBDB2411D9
:1039500001200249091D0860204670BD8481214272
:103960000080234200802142208123422DE9FE4332
:1039700080460027002406E04046FFF7B1FF2DF8FF
:103980001400601C84B2052CF6DB002416E0601CD9
:1039900085B20FE03DF814003DF81510884207DDB0
:1039A0003DF814603DF815002DF814002DF8156051
:1039B000681C85B2052DEDDB601C84B2042CE6DBAF
:1039C0000027012405E03DF81400384487B2601C4C
:1039D00084B2042CF7DB032097FBF0F086B230466C
:1039E000BDE8FE832DE9F04104460D460748007806
:1039F000FFF7BCFF064606480078FFF7B7FF07460B
:103A000026802F800120BDE8F081000044000020C6
:103A1000450000207FB504460D4602A903A8FFF724
:103A2000E1FF064616B9002004B070BD694601A842
:103A3000FFF7D8FF06460EB90020F5E7BDF80400F1
:103A4000BDF80C10884206DCBDF80C10BDF804006F
:103A5000323081420CDBBDF80C00BDF80410884206
:103A600036DCBDF80410BDF80C00323081422FDA8C
:103A7000BDF80000BDF80810884206DCBDF808104B
:103A8000BDF80000323081420CDBBDF80800BDF803
:103A9000001088421CDCBDF80010BDF80800323070
:103AA000814215DABDF80C10BDF80420881800EB2F
:103AB000D071C1F34F012180BDF80810BDF800207E
:103AC000881800EBD071C1F34F0129800120ABE7CA
:103AD0000020A9E770B51A49486A1A49FCF7B6FBF5
:103AE0000546FCF7BEFC044621460020FDF7A6F87B
:103AF0001349886A1349FCF7A9FB0546FCF7B1FC9A
:103B0000044621460220FDF799F80D48B0F92C1023
:103B10000420FDF793F80A48B0F92E100620FDF7AF
:103B20008DF8074890F830100820FDF77BF80A2040
:103B300000F01EFE0A2421460920FDF773F870BD2F
:103B4000100000208096184B2DE9F04104464048B3
:103B50000068002856D12CB13E49A1F10A00FFF7B8
:103B600059FF3DE03B49A1F10A00FFF753FFB8B30D
:103B700038491639B1F92C00FCF747FC074635499E
:103B800016398889FCF74AFC804632481638416A63
:103B90004046FCF75BFB06463946FCF7FFFA054654
:103BA000FCF778FC2B4916398881B1F92E00FCF717
:103BB0002CFC074627491639C88AFCF72FFC80469B
:103BC00024481638816A4046FCF740FB06463946D1
:103BD000FCF7E4FA0546FCF75DFC1E491639C8827D
:103BE0001C48163890F8200000F0800038BBC02038
:103BF0001849163981F82000084681898182C18AD6
:103C0000C1831CE01348163890F8200000F08000B3
:103C100050B11048163890F8200020F080000D496F
:103C2000163981F820000AE000210A4816388182FE
:103C3000C1834FF6FF70074916398881C88205484D
:103C4000163890F8200000F08000BDE8F0810000F8
:103C50002881234226000020002100BF14E000F04C
:103C600080021AB101220A4B1A6002E00022084BBE
:103C70001A604206100E0022064B1A600122064B03
:103C8000C3F884214A1CD1B20829E8DB7047000040
:103C9000A4812342848121420080214270B5002406
:103CA0001AA51E48C07D11282DD11C4890F824006B
:103CB0001B490988C1F30721884224D1174890F88D
:103CC00025001749097888421DD116A000F06CFA2A
:103CD000FEF756FE1CA000F067FA104890F8264048
:103CE000240290F827002044A0F108042846FCF79D
:103CF0003DFA06460A48324629460368074801F05D
:103D00009BF8012070BD0020FCE7000068656C6C2A
:103D10006F20776F726C640A00000000E6010020DB
:103D2000900000202A2A2A2A2A2A2A2A554450208A
:103D30005061636B65742A2A2A2A2A2A2A2A2A2A87
:103D40002A2A2A2A0A0000000A2A2A2A2A2A2A2A91
:103D50002A2A2A2A2A2A2A2A2A2A2A2A2A2A2A2AC3
:103D60002A2A2A2A2A2A2A2A2A00000010B540F2E2
:103D700025511D4800F04AF810B31B4800F002F925
:103D8000C4B21A48008800F40040C8B91748008837
:103D900000F4804060B10A2C03D000201349088051
:103DA00020E01248008840F400401049088019E0E3
:103DB0000D2C06D10D48008840F480400B49088046
:103DC00010E00A480088C0F30D0009490C54074868
:103DD0000088401C0549088008460088C72801DD86
:103DE0000020088010BD00000038014008000020BD
:103DF0001001002021B1828942F40052828104E046
:103E000082894DF6FF731A408281704770B5024671
:103E1000002400230025002040F66A16B14200D19C
:103E200000BFC1F3421501F01F03012606FA03F398
:103E3000012D02D19689334006E0022D02D1168A67
:103E4000334001E0968A33400C12012606FA04F44E
:103E50001688344013B10CB1012000E0002070BD81
:103E6000F0B50346002400260025002040F66A171E
:103E7000B94200D100BF1846C1F3421401F01F0639
:103E8000012707FA06F5012C01D10C3004E0022CC1
:103E900001D1103000E014301AB107682F430760D9
:103EA00002E00768AF430760F0BD00002DE9F0476E
:103EB00086B005460E460024A24600BFA146002754
:103EC000B08900B100BF2F462C8A4CF6FF70044029
:103ED000F08804432C82AC894EF6F3100440B0887D
:103EE00031890843718908430443AC81AC8A4FF699
:103EF000FF400440B0890443AC8201A8FEF734FCC3
:103F00001F48874202D1DDF810A001E0DDF80CA0C7
:103F1000A88900F4004040B10AEBCA0000EB0A1087
:103F200031684900B0FBF1F807E00AEBCA0000EB8A
:103F30000A1031688900B0FBF1F86420B8FBF0F09A
:103F400004012009642101FB1089A88900F40040C4
:103F500040B1322000EBC900B0FBF1F000F00700E7
:103F6000044308E0322000EB09106421B0FBF1F0BB
:103F700000F00F0004432C8106B0BDE8F08700007C
:103F80000038014001468888C0F3080070470000EF
:103F9000F8B504460D46002C2BDB1F202C49088069
:103FA0000A2094FBF0F000EBC0002A4901EB001658
:103FB000462205FB02F04A3081B22A2318226A20E9
:103FC0000096FDF7BDFF0A2094FBF0F100FB1140C5
:103FD00000EBC0001F4901EB0016462205FB02F072
:103FE0004A3081B22A2318228C200096FDF7A8FFC0
:103FF0002DE04FF4784016490880604204B20A2050
:1040000094FBF0F000EBC000124901EB00164622D1
:1040100005FB02F04A3081B22A2318226A2000965A
:10402000FDF78EFF0A2094FBF0F100FB114000EB3E
:10403000C000084901EB0016462205FB02F04A3099
:1040400081B22A2318228C200096FDF779FFF8BD53
:104050000A000020F871000808B500F067FB4FF473
:10406000A060FEF72FFB4FF4E131684600F02CF81A
:10407000FEF70CFC00F0C8FB40F27641142000F083
:10408000FCFC50220C490D4800F01EFEFDF73CFBE5
:10409000FDF71CF8FCF74EFEFCF78AFC084908689F
:1040A00080470848006820F00100401C054908606E
:1040B000FEF796FD08BD00008A0000208400002065
:1040C00010000020B000002070B505460C462046C8
:1040D00000F01CFF284670BDD0E900211161704737
:1040E000D0E900215161704700B50346187A28B124
:1040F0001846FFF7F5FF0020187204E01846FFF796
:10410000EBFF0120187200BDF8B505460C461646B7
:104110002349601A8C421AD009DC2248204428B373
:10412000B0F5806F1DD0B0F5006F24D114E0B0F56C
:10413000806F07D0B0F5006F1DD101218020FEF700
:1041400003FB18E001214020FEF7FEFA13E00121F5
:104150002020FEF7F9FA0EE001211020FEF7F4FA14
:1041600009E001210820FEF7EFFA04E00121042014
:10417000FEF7EAFA00BF00BF2C606E6010208DF8D9
:104180000300B0B2ADF8000003208DF802006946CC
:104190002046FCF7ADFE2846FFF7A2FF2846F8BDF3
:1041A0000014014000F8FEBF0FB4054B10B503A981
:1041B000044A029800F030F910BC5DF814FB0000CE
:1041C000AD4C0008040000202DE9F0474FF0060A2E
:1041D000062600250027A8464FF0FF397548B0F89D
:1041E00000A075480688BAF1000076D0A0F56E40B0
:1041F000EE3858B3A0F58850113800286ED146B972
:104200006C48FCF737FD0446042C1ED02046BDE860
:10421000F0874EF6EE60864210D16648FCF72AFD24
:104220000446042C01D02046F1E700216248FCF747
:1042300061FD0446042C08D02046E8E7FCF79AFB11
:104240000446042C01D02046E1E7B0E086BB0025FF
:1042500023E05848C088594931F81510884201D1E7
:104260000FFA85F94D4516D0544931F815005449D7
:10427000FCF724FC8046B8F1010F0CD0504A12889C
:1042800091B24E4A32F81500FCF776FC0746042F2F
:1042900001D03846BBE7681C85B20F2DD9DB002161
:1042A0004448FCF727FD0446042C02D02046AEE724
:1042B00007E04148FCF7DEFC0446042C1FD02046F2
:1042C000A5E74FF6FF70864212D13B48FCF7D2FCBF
:1042D0000446042C03D0204699E711E05FE000215A
:1042E0003448FCF707FD0446042C08D020468EE72E
:1042F000FCF740FB0446042C01D0204687E756E03B
:1043000036B9FCF737FB0446042C47D020467EE73D
:104310004FF6FF70864207D12748FCF7ABFC0446F6
:10432000042C3BD0204672E7002524E02248801D63
:104330000088224931F81510884201D10FFA85F919
:104340004D4516D01D4931F815001D49FCF7B6FB47
:104350008046B8F1010F0CD0194A128891B2174A61
:1043600032F81500FCF708FC0746042F01D0384648
:104370004DE7681C85B20F2DD8DB00210E48FCF7F5
:10438000B9FC0446042C01D0204640E70948FCF75C
:1043900071FC0446042C01D0204638E707E0FCF706
:1043A000E9FA0446042C01D0204630E700BF00BFE4
:1043B00004202CE700000108000801084C00002040
:1043C0006C00002002E008C8121F08C1002AFAD1C0
:1043D00070477047002001E001C1121F002AFBD185
:1043E000704700000149086070470000F400002099
:1043F00010B5202204490548FFF786FE2022044913
:104400000448FFF781FE10BD00180140F8000020AD
:10441000000C0140040100202DE9FF4F8DB09B46A8
:104420000F460446002606E025280BD05A460F9971
:104430009047641C761C20780028F5D111B03046D6
:10444000BDE8F08F0025A8460122984900E0054309
:1044500014F8013F203B02FA03F00842F7D120781C
:104460002E2817D114F8010F45F004052A280ED084
:104470006FF02F022078A0F1300109290AD808EB4B
:10448000880102EB410100EB0108641CF2E757F8D8
:10449000048B641C20786C280DD004DC4C2812D0CE
:1044A0006A2811D104E074280DD07A280CD10AE0D2
:1044B00045F4001507E0617845F48015814202D18A
:1044C000641C05F58015641C2278692A45D008DC37
:1044D000002AB3D0582A69D0632A10D0642A08D1A0
:1044E0003BE0702A67D0732A13D0752A5CD0782AF3
:1044F0005CD010465A460F999047761CD3E017F8C7
:10450000040B8DF8000000208DF80100E946012021
:1045100003E057F8049B4FF0FF3069074FF00005A8
:1045200001D40AE06D1C45450DDA8542FADB19F825
:1045300005100029F6D106E06D1C8542FCDB19F858
:1045400005100029F8D12E4404E019F8010B5A4651
:104550000F9990476D1EF8D2A5E00A200021CDE901
:104560000801C5F3025002280DD001CFC117031E68
:1045700071F100030DDA4FF0000CD0EB0C006CEB86
:1045800001012D2308E0FF1D27F00707F7E80201CE
:10459000EDE72B0504D52B238DF8283001233BE0D4
:1045A000EB0739D02023F7E70A2000E01020002194
:1045B000CDE9080107E01020002145F00405CDE910
:1045C00008014FF00808C5F3025002280FD001CFB0
:1045D00000214FF0000A2B071FD5702A0DD0DDE90E
:1045E00008C38CF0100C5CEA030C0CD015E0FF1D26
:1045F00027F00707F7E80201EBE740228DF82820B3
:104600004FF0010A0BE050EA010306D030238DF889
:1046100028308DF8292002239A46582A04D024A253
:104620000DF120090B9209E026A2F9E7DDE9082344
:10463000FBF7BCFF0B9B9B5C09F8013D50EA0102B4
:10464000F4D1ADEB090020300890680701D44FF099
:1046500001080899884502DDA8EB010000E0002070
:104660008046002506E00AA85A46405D0F9990470B
:104670006D1C761C5545F6DB04E030205A460F9938
:104680009047761CB8F10001A8F10108F5DC05E0BF
:1046900019F8010B5A460F999047761C0899481E45
:1046A00008900029F4DC641CC5E60000092801001C
:1046B0003031323334353637383961626364656698
:1046C000000000003031323334353637383941425A
:1046D000434445460000000030B504460B46002127
:1046E000012A03D11131A3F108000144022A03D1A8
:1046F000891DA3F10800014406E06078257840EAAE
:1047000005200144A41C9B1E012BF6D813B1207870
:1047100001EB002102E088B200EB1141080C0028F7
:10472000F9D14FF6FF7581EA050030BD10B56FF085
:104730000400FEF7ADF90A4800680A49B0FBF1F041
:10474000094908700846007800EB4001C1EBC01031
:104750004FF6FF7101EAC0000449088010BD000057
:10476000CC00002000127A0000000020020000208F
:104770000146114A12884A434FF0E0235A61002251
:104780009A611A46126942F001021A6100BF4FF0A5
:10479000E022106900F001021AB100F48032002A10
:1047A000F5D04FF0E022126922F001024FF0E02331
:1047B0001A6100229A617047020000200146114AE6
:1047C00012784A434FF0E0235A6100229A611A4658
:1047D000126942F001021A6100BF4FF0E022106935
:1047E00000F001021AB100F48032002AF5D04FF037
:1047F000E022126922F001024FF0E0231A61002248
:104800009A6170470000002010B510204E490860E2
:10481000FF220021104600F0CFF900204B4908602C
:104820000021082000F0A4F90021092000F0A0F9DF
:1048300000210C2000F09CF900210D2000F098F9D7
:10484000FE210A2000F094F919210B2000F090F9C4
:10485000FF21042000F08CF91921052000F088F9CF
:10486000FF21062000F084F91F21072000F080F9C5
:10487000B021382000F07CF93F21282000F078F9A1
:104880003021292000F074F9F921302000F070F96E
:10489000F721312000F06CF90D21C02000F068F9FB
:1048A0000021C12000F064F93322C221802000F0F1
:1048B00083F91221C62000F05BF90C21C72000F01B
:1048C00057F91521C42000F053F9DC21CA2000F06B
:1048D0004FF90521CB2000F04BF91D480178E42069
:1048E00000F046F91A484178E52000F041F91848EF
:1048F0008178E22000F03CF91548C178E32000F00F
:1049000037F913480179E02000F032F91048417975
:10491000E12000F02DF94FF48071002000F0ADF897
:104920004FF48071102000F0A8F81F2000F006F965
:10493000C0221B21802000F03FF904221F2180208B
:1049400000F03AF910BD000010080140800000207E
:10495000840000202DE9F04105460F46392000F083
:10496000A5F810B90020BDE8F081294801780020A1
:1049700000F0FEF826480088C0F30721012000F06F
:10498000F7F800213A2000F0B7F82149086000212B
:104990003A2000F0B1F81E49096841EA00201C499C
:1049A000086000213A2000F0A7F8044600213A20D0
:1049B00000F0A2F844EA0024241F00213A2000F06D
:1049C0009BF8064600213A2000F096F846EA0026B9
:1049D000681EA04200D26C1E06F0800008B90024B8
:1049E00003E03946204600F06BF8094801780C20B6
:1049F00000F0BEF806480088C0F307210D2000F043
:104A0000B7F840221E21802000F0D6F82046AAE701
:104A10008000002070B504460D46FF21022000F002
:104A2000A7F81921032000F0A3F8FF202044C1B209
:104A3000062000F09DF841F6FF102044C0F3072146
:104A4000072000F095F8002211467A2000F0B4F813
:104A50002946204600F098F808221F21802000F007
:104A6000ABF81C2000F022F800F0020020B1082270
:104A70001F21A02000F0A0F870BD70B505460C46BF
:104A80002946D42000F074F8E1B2D62000F070F886
:104A9000C4F30721D72000F06BF800BFEA2000F034
:104AA00005F800F001000028F8D170BD10B50446EB
:104AB000204600F043F82146002000F01DF810BD0C
:104AC00070B505460C4610200A4908603A20FDF7EB
:104AD000B5FE05E06D1E0020FDF7B0FE2070641CE1
:104AE000002DF7D10020207010200249091F086016
:104AF00070BD00001408014070B505460C46002644
:104B000010200D49086004F01F0040EA05063046F9
:104B1000FDF794FEFF20FDF791FE064604F08000AD
:104B200018B1FF20FDF78AFE064610200249091F32
:104B30000860304670BD00001408014010B50446FE
:104B400004F060000949097888420ED003221F2131
:104B5000A02000F031F8C4F341121F21802000F0A2
:104B60002BF804F060000149087010BD7C000020A3
:104B700070B504460D462046FFF7E0FF2A46214661
:104B8000402000F019F870BD70B504460D461020A5
:104B9000084908607A20FDF751FE04E0641E287879
:104BA000FDF74CFE6D1C002CF8D110200149091FA7
:104BB000086070BD140801402DE9F04104460D461F
:104BC0001646002710200949086005F01F0040EA3A
:104BD00004073846FDF732FE37463846FDF72EFE0D
:104BE00010200249091F0860BDE8F0811408014047
:104BF00010B502460B460021292B01D2002010BD22
:104C0000107B082802D1507B062801D00020F6E74F
:104C10000AE001F12600105C054C645CA04201D062
:104C20000020ECE7481CC1B20429F2DB0120E6E7D2
:104C30009F00002010B502460B4600212A2B01D20E
:104C4000002010BD107B082801D1507B08B1002046
:104C5000F7E7907B452801D00020F2E70AE001F158
:104C60001E00105C054C645CA04201D00020E8E707
:104C7000481CC1B20429F2DB0120E2E79F000020BA
:104C800030B5044600202076607640202075002054
:104C900060754020A0750022142104F10E00FFF77A
:104CA0001BFD0546280A2076657630BD00BF054A03
:104CB000128802F04002002AF9D0C2B2014B1B1D3B
:104CC0001A8070470038014030B5034600200A4C76
:104CD000227004E00C5C094D2C54441CE0B2042802
:104CE000F8DB002004E01C5C054D2C54441CE0B2B1
:104CF0000628F8DB30BD0000980000209F0000204F
:104D000099000020FFF7A8F90A48FFF7E5F90FE03E
:104D100009480088C0F3802040B10848FFF7E4F953
:104D20000548006820F4806003490860FBF786FDB1
:104D3000EEE7000004010020B0000020F800002091
:104D400070B505460024284600F04CF80020287570
:104D5000022068750BE004F11600295C0A30295422
:104D60000E48015D04F116002954601CC4B2062CE3
:104D7000F1DB00240BE004F11C00295C0A3029540B
:104D80000748015D04F11C002954601CC4B2042CC6
:104D9000F1DB29462A20FFF73DFE70BD9900002077
:104DA0009F00002070B504460D46204600F01AF81A
:104DB000204600F029F8002084F8220094F824000E
:104DC000F72804DD94F82500401C84F8250094F8A9
:104DD0002400083084F8240021462846FFF71AFEF4
:104DE00070BD00000146002008E0821D8A5C0A5464
:104DF000044A135C821D8B54421CD0B20628F4DB9B
:104E0000704700009900002030B5054600240BE0F3
:104E100004F11A00295C001D29540648015D04F1C3
:104E20001A002954601CC4B2042CF1DB2846FFF799
:104E300027FF30BD9F0000202DE9F047044689463A
:104E400015461F464FF0000A00262046FFF7CAFF0E
:104E5000DC2D00D9DC2505F11C0A4FEA1A2020744C
:104E600084F811A02046FFF7CFFF380A04F8240F7A
:104E70006770280AA07005F10800E070002020711A
:104E80006071243C05E019F8061006F12A0021544F
:104E9000761CAE42F7D305F11001012204F11A008D
:104EA000FFF71AFC80464FEA182084F8280084F89F
:104EB000298005F12A002146FFF7ACFDBDE8F08707
:104EC0002DE9F04106460F46FBF745FC041E0D4652
:104ED00018BF0120284320F00040C0F17F6000F19E
:104EE000E040C00F0ED0301C18BF0120384320F026
:104EF0000040C0F17F6000F1E040C00F04BF01201E
:104F0000FFF770FA20462946BDE8F08110B586B05B
:104F10000446012144F20400FDF716FC4FF4007032
:104F2000ADF8140003208DF8160018208DF8170036
:104F300005A91C48FBF7DCFF4FF48060ADF81400B6
:104F400004208DF8170005A91648FBF7D1FF25208E
:104F50008DF8000003208DF801008DF8020001207B
:104F60008DF803006846FDF775FB01940020ADF84D
:104F70000800ADF80A00ADF80C00ADF810000C20E8
:104F8000ADF80E0001A90848FEF790FF012240F29B
:104F900025510548FEF764FF01210348FEF72AFF6B
:104FA00006B010BD000801400038014000000000BC
:104FB0000000000000000000000000003F40000072
:104FC0000000000000003000400030004000000001
:104FD00009000BC03D000BC03D00090018C0244073
:104FE0007FE0224031800000180024C01B000D80AB
:104FF0003240018003801C4027401C800740004055
:105000001000600000000000000000000000000030
:1050100000001F80204040200000402020401F80D2
:1050200000000000090006001F80060009000000C3
:10503000040004003F800400040000000010006031
:105040000000000000000000040004000400040050
:10505000040000000000004000000000000000000C
:10506000002001C006003800400000001F802040E2
:10507000204020401F800000000010403FC0004042
:105080000000000018C021402240244018400000C9
:1050900010802040244024401B80000002000D00AE
:1050A00011003FC0014000003C80244024402440C7
:1050B000238000001F8024402440344003800000EF
:1050C0003000200027C03800200000001B80244052
:1050D000244024401B8000001C0022C022402240AB
:1050E0001F800000000000000840000000000000D9
:1050F0000000000004600000000000000000040048
:105100000A00110020804040090009000900090040
:105110000900000000004040208011000A00040047
:105120001800200023402400180000001F802040A9
:10513000274029401F400000004007C039000F00F1
:1051400001C0004020403FC0244024401B8000009C
:105150001F802040204020403080000020403FC081
:10516000204020401F80000020403FC024402E40AF
:1051700030C0000020403FC024402E00300000001E
:105180000F001080204022403380020020403FC0AA
:10519000040004003FC02040204020403FC0204089
:1051A000204000000060202020203FC02000200080
:1051B00020403FC024400B0030C0204020403FC072
:1051C00020400040004000C03FC03C0003C03C0005
:1051D0003FC0000020403FC00C4023003FC02000E3
:1051E0001F802040204020401F80000020403FC002
:1051F00024402400180000001F802140214020E0AE
:105200001FA0000020403FC02440260019C00040DD
:1052100018C024402440224031800000300020404B
:105220003FC020403000000020003F800040004090
:105230003F80200020003E0001C007003800200011
:10524000380007C03C0007C038000000204039C0CB
:10525000060039C0204000002000384007C0384018
:1052600020000000304021C02640384020C000000F
:10527000000000007FE0402040200000000070009F
:105280000C000380004000000000402040207FE030
:10529000000000000000200040002000000000008E
:1052A000001000100010001000100010000000009E
:1052B00040000000000000000000028005400540A2
:1052C00003C0004020003FC00440044003800000B1
:1052D00000000380044004400640000000000380FA
:1052E000044024403FC000400000038005400540CA
:1052F00003400000000004401FC024402440200060
:10530000000002E0055005500650042020403FC038
:105310000440040003C000400000044027C00040D7
:105320000000000000100010041027E00000000042
:1053300020403FC00140070004C0044020402040FE
:105340003FC000400040000007C0040007C0040048
:1053500003C00000044007C00440040003C0004034
:10536000000003800440044003800000041007F0A4
:1053700004500440038000000000038004400450F7
:1053800007F00010044007C00240040004000000C1
:10539000000006400540054004C000000000040075
:1053A0001F800440004000000400078000400440CB
:1053B00007C000400400070004C00180060004008C
:1053C000060001C0070001C006000000044006C03E
:1053D000010006C0044000000410071004E0018032
:1053E000060004000000044005C006400440000020
:1053F0000000000004007BE04020000000000000EE
:105400000000FFF000000000000040207BE00400EE
:10541000000000004000800040002000200040000C
:10542000000000000000000000000000000000007C
:105430000000000000001FCC000C00000000000075
:10544000000008003000600008003000600000002C
:10545000022003FC1E20022003FC1E20022000006C
:1054600000000E1811043FFF10840C7800000000AB
:105470000F0010840F3800C00778188400780000EF
:1054800000780F8410C411240E9800E400840008F2
:10549000080068007000000000000000000000002C
:1054A00000000000000007E018182004400200007F
:1054B000000040022004181807E00000000000006F
:1054C0000240024001800FF00180024002400000D3
:1054D0000080008000800FF80080008000800000C5
:1054E0000001000D000E00000000000000000000A0
:1054F000000000800080008000800080008000802C
:105500000000000C000C0000000000000000000083
:10551000000000060018006001800600180020004E
:10552000000007F0080810041004080807F0000045
:105530000000080408041FFC000400040000000030
:1055400000000E0C10141024104411840E0C0000E6
:1055500000000C1810041104110412880C700000D3
:10556000000000E00320042408241FFC00240000A5
:1055700000001F981084110411041088107000009E
:10558000000007F00888110411041888007000005A
:1055900000001C00100010FC13001C001000000094
:1055A00000000E3811441084108411440E3800009D
:1055B00000000700088C10441044088807F0000021
:1055C000000000000000030C030C000000000000BD
:1055D00000000000000101060000000000000000C3
:1055E00000000080014002200410080810040000A0
:1055F00002200220022002200220022002200000BD
:10560000000010040808041002200140008000007F
:1056100000000E001200100C106C10800F00000033
:1056200003E00C1813E4142417C4082807D0000062
:105630000004003C03C41C40074000E4001C0004BC
:1056400010041FFC1104110411040E8800700000E6
:1056500003E00C1810041004100410081C100000C3
:1056600010041FFC100410041004080807F00000C8
:1056700010041FFC1104110417C4100408180000C2
:1056800010041FFC1104110017C0100008000000D6
:1056900003E00C181004100410441C7800400000B3
:1056A00010041FFC10840080008010841FFC100474
:1056B0000000100410041FFC10041004000000007F
:1056C00000030001100110011FFE10001000000077
:1056D00010041FFC110403801464181C1004000043
:1056E00010041FFC1004000400040004000C00005F
:1056F00010041FFC1F0000FC1F001FFC1004000012
:1057000010041FFC0C04030000E010181FFC100024
:1057100007F00808100410041004080807F000003F
:1057200010041FFC10841080108010800F000000F7
:1057300007F0081810241024101C080A07F20000B3
:1057400010041FFC1104110011C011300E0C0004D4
:1057500000000E1C11041084108410441C3800003A
:105760001800100010041FFC1004100018000000A6
:1057700010001FF810040004000410041FF81000AB
:1057800010001E0011E0001C007013801C001000AF
:105790001FC0103C00E01F0000E0103C1FC00000D4
:1057A0001004180C163401C001C01634180C100473
:1057B00010001C00130400FC13041C001000000067
:1057C0000804101C1064108413041C04101800003A
:1057D0000000000000007FFE400240024002000086
:1057E000000030000C0003800060001C000300007B
:1057F00000004002400240027FFE00000000000066
:105800000000000020004000400040002000000098
:105810000001000100010001000100010001000180
:1058200000004000400020000000000000000000D8
:1058300000000098012401440144014400FC0004DC
:1058400010001FFC008801040104008800700000A3
:1058500000000070008801040104010400880000B9
:105860000000007000880104010411081FFC0004FE
:10587000000000F8014401440144014400C8000054
:105880000000010401040FFC1104110411001800B0
:10589000000000D601290129012901C901060000E3
:1058A00010041FFC008401000100010400FC00043E
:1058B00000000104190419FC0004000400000000A9
:1058C0000000000300010101190119FE00000000A1
:1058D00010041FFC0024004001B4010C010400006E
:1058E0000000100410041FFC00040004000000006D
:1058F000010401FC0104010001FC0104010000FCA1
:10590000010401FC008401000100010400FC00040A
:10591000000000F8010401040104010400F8000083
:10592000010101FF008501040104008800700000EE
:1059300000000070008801040104010501FF00015E
:105940000104010401FC0084010401000180000045
:10595000000000CC0124012401240124019800004E
:1059600000000100010007F801040104000000002C
:10597000010001F8000400040004010801FC000417
:10598000010001800170000C001001600180010025
:1059900001F0010C003001C00030010C01F00100E9
:1059A00000000104018C00740170018C01040000EE
:1059B000010101810171000E0018016001800100E8
:1059C00000000184010C013401440184010C000039
:1059D000000000000000000001003EFC4002400208
:1059E0000000000000000000FFFF000000000000B9
:1059F0000000400240023EFC0100000000000000E8
:105A00000000600080008000400040002000200076
:105A1000000000000000000800000800000800006E
:105A20000800000C0020043820F51F20A502A094D7
:105A300002FC970290540290141090123010F23F22
:105A4000000200000200000200000200000200004C
:105A50000200000000000000000000000000000044
:105A60000000000000003E00001A000010C07F0887
:105A700040C008E0A00FD821084C250824240920A4
:105A80002C1EE02F104020200030E000307000F08D
:105A90001F00E003002000000000000000000000E4
:105AA00000000000000000000400100C801006C080
:105AB000180240FF01400801408810200010C00378
:105AC00010403E11201211201211E0FF1F609318A8
:105AD000209108108808100F08F0030870000820B3
